:060000000C94AA070C9409
:10000600F72C0C9400000C9400000C9400000C9447
:1000160000000C9400000C9400000C9400000C945A
:1000260000000C9400000C9400000C9400000C944A
:10003600892D0C9400000C9400000C94ED070C9490
:1000460000000C9400000C9400000C9400000C942A
:1000560000000C9400000C9400000C9400000C941A
:100066000000FFFF830139393939393939390183BC
:10007600FFFFFFFFE7E78787E7E7E7E7E7E7818136
:10008600FFFFFFFF830139F9F9F9F3E7CF9F01017C
:10009600FFFFFFFF830139F9F9C1C1F9F9F90183BE
:1000A600FFFFFFFF39393939390181F9F9F9F9F9D2
:1000B600FFFFFFFF01013F3F3F0301F9F97901838C
:1000C600FFFFFFFF8301393F3F03013939390183C0
:1000D600FFFFFFFF8301393939F9F9F9F9F9F9F920
:1000E600FFFFFFFF8301393939830139393901832C
:1000F600FFFFFFFF83013939390181F9F9F90183DE
:10010600FFFFFFFFFFFFE7E7FFFFFFFFE7E7FFFF59
:10011600FFFFFFFFFFFFFFFFFFFFFFFFFFFFFFFFE9
:10012600FFFFFFFFFFFFFFFFFFC3C3FFFFFFFFFF51
:10013600FFFFFFFFFFFFFFE7E78181E7E7FFFFFF25
:10014600FFFFFFFFFFFFFFFCFFFFFFFFFFFFFFFFBC
:10015600FFFFFFFFFFFFF3FFFFFFFFFFFFFFFFFFB5
:10016600FFFFFF8FF1FFFFFFFFFFFFFFFFFFFFFF17
:10017600FFFFFE7FFFFFFFFFFFFFFFFFFFFFFFFF0A
:10018600FFF9FFFFFFFFFFFFFFFFFFFFFFFF77EE18
:10019600FFFFFFFFFFFFFFFFFFFFFFFFFFC73FFF61
:1001A600FFFFFFFFFFFFFFFFFFFFFFFF3CFFFFFF1C
:1001B600FFFFFFFFFFFFFE07FF77EEFFFFFFFFFFDB
:1001C600FFFFFFFFFFFFFFFF83FFFFFFFFFFFFFFB5
:1001D600FFFFFFFFFFFFFC0FFFFFFFFFFFFFFFFF1C
:1001E600FFFE07FF8FF1FFFFFFFFFFFFFFFFC000CE
:1001F600007FFC00FFFFFFFFFC0000FFFC000E007D
:1002060003F003FFFC0003FFFFFFFFFFFE07FFE015
:100216000FFFFFFFFFFFFFFFFFC000001FF8707F0B
:10022600FFFFFFC00000FFFC000E0003E1C1FFFC62
:100236000003FFFFFFFFFFFE07FFDFF7FFFFFFFFE4
:10024600FFFFFFFFFC0FE00FFFFFFFFFFFFF003F79
:1002560001FFFFC03FC03FFFFFFFFF803FFFFFFFE3
:10026600FFFFFE07FFBFFBFFFFFFFFFFFFFFFFFCD8
:100276000FF007F801FC01807F00FF80FFFFC07FC1
:10028600C07FE007FFFF807FFFFF803FF80E07FF7C
:10029600BFDDFFFFFFFFFFFFFFFFFC0FF803C000FE
:1002A6003F00001F00FFFFFFFF807F807F0000FFF1
:1002B600FF807FFFFC0007E00007FFBFBDFFFFFFD9
:1002C600FFFFFFFFFFE003F00380701F00F01C013B
:1002D600E0001FFF8000007E03C07FFF807FFFF0ED
:1002E6001E03C03807FFA07DFFFFFFFFFFFFFFFFD4
:1002F600E003F80301F80F01F01C01C0001FFF80A6
:1003060000007C07F03FFF807FFFE03E01807C0716
:10031600FFBFFDFFFFFFFFFFFFFFFFFC0FF0070121
:10032600F80F01F01C01FC03FFFF807F807C07F0C3
:100336003FFF807FC0600001807C07FFDFFBFFFF7F
:10034600FFFFFFFFFFFFFC0FF00701F81F01F03E64
:1003560000F803FFFF807F807C07F07FFF807FC06F
:10036600E07FFF807C07FFEFF7FFFFFFFFFFFFFF48
:10037600FFFC0FC01F00E01F03F03E007803FFFFE5
:10038600800F80FC03807FFF80FFC0E03F83807882
:100396000FFFF007FFFFFFFFFFFFFFFF0000007FDB
:1003A600800070008007800003FFF0000F000E0041
:1003B60001FFF0000000F00007C00001FFFFF7FF9B
:1003C600FFFFFFFFFFFFFF000001FFF003F00080CB
:1003D60007F80303FFF0000F000FC00FFFF0000047
:1003E60000FE003FF80801FF0FF0FFFFFFFFFFFFD1
:1003F600FFFFFFFFFFFFE1E1C9C9C999819939FFF5
:10040600FFFFFFFFFFFFC1CC9C9C819C9C3C01FF32
:10041600FFFFFFFFFFFFC399993F3F3F393983FF36
:10042600FFFFFFFFFFFFC18C9C9C9C9C993903FF3B
:10043600FFFFFFFFFFFFC1CF9F9F839F9F3F03FFEC
:10044600FFFFFFFFFFFFC1CF9F9F839F9F3F3FFFA0
:10045600FFFFFFFFFFFFC399993F2139393183FF22
:10046600FFFFFFFFFFFFCCCC99998199993333FFAA
:10047600FFFFFFFFFFFFF3FFE7E7E7E7E7CFCFFF6A
:10048600FFFFFFFFFFFFF9F9F3F3F3F3F3278FFF06
:10049600FFFFFFFFFFFFCCC993878793933939FF8F
:1004A600FFFFFFFFFFFFCFCF9F9F9F9F9F3F03FF52
:1004B600FFFFFFFFFFFFBE9C82A2B6BEBE3C3CFF15
:1004C600FFFFFFFFFFFFDCDC8989A9A1A13333FF12
:1004D600FFFFFFFFFFFFC39999B939393B3387FF08
:1004E600FFFFFFFFFFFFC1CC9C9C9C819F3F3FFF0E
:1004F600FFFFFFFFFFFFC399993939392B3387FF78
:10050600FFFFFFFFFFFFC1CC9C9C8393933939FF0C
:10051600FFFFFFFFFFFFE3C9C9CFE7F39393C7FFD1
:10052600FFFFFFFFFFFF01E7CFCFCFCFCF9F9FFF9B
:10053600FFFFFFFFFFFF9C9C39393939393387FFAD
:10054600FFFFFFFFFFFF39333337272F0F1F1FFF33
:10055600FFFFFFFFFFFF6E6C4D494B2327276FFF01
:10056600FFFFFFFFFFFF3D1B9393C7CFCF9F9FFF6B
:10057600FFFFFFFFFFFF3D1B9393C7CFCF9F9FFF5B
:10058600FFFFFFFFFFFF81F3F3E7C7CF9F9F01FF49
:10059600FFFFFCF9F3FFE1E1C9C9C999819939FF68
:1005A600FFFFFFFFFFFFFFFFFFFFFFFFFFE7E7FF85
:1005B600FFFFFFFFFFFFE7E7FFFFFFFFE7E7FFFFA5
:1005C600FFFFFFFFFFFFFFFFFFFFFFFFFFFFFFFF35
:1005D600FFFF070707676767616666616767670703
:1005E60007070707070707070106060107070707A3
:1005F60007079FCFE5FCC09899B93939393387FF8A
:10060600FFFFF9F3E7FF9C9C39393939393387FF06
:10061600FFFFF3E1CCFFE1E1C9C9C999819939FF2F
:10062600FFFFE7F3F9FFE1E1C9C9C999819939FFEC
:10063600FFFFFCF9F3FFE1E1C9C9C999819939FFC7
:10064600FFFFCCE0F1FFE1E1C9C9C999819939FF02
:10065600FFFFFFFFFFFFFFFFFFC3C3FFFFFFFFFF1C
:10066600FFFFF3C99CFFC39999B939393B3387FF1B
:10067600FFFFF3E1CCFFE1E1C9C9C999819939FFCF
:10068600E7E7FFE7DBDBE7FFFFFFFFFFFFFFFFFF1C
:10069600FFFFFFFFFFFFFFFFC3FFC3FFFFFFFFFFDC
:1006A600FFFF9FCFE7FEC29899B939393B3387FFE1
:1006B600FFFFF3C99CFFC39999B939393B3387FFCB
:1006C600CFCFFFFFFFFFC18C9C0C0C9C993903FF19
:1006D600FFFF9FCFE7FF9C9C39393939393387FFB4
:1006E600FFFFF3E1CCFFC1CF9F9F839F9F3F03FF97
:1006F600CFCFF3FDFBFFE1E1C9C9C999819939FF64
:10070600FFFFFFFFFFFFE1E1C9C9C999819939FFE1
:10071600E7E70000000007FFFFE009FE00101201F6
:100726000008240080042800400428004004280013
:100736004004280040042800400428004004240007
:1007460080041201000809FE001007FFFFE0000008
:1007560000000000000007FFFFE00C03FFF0180197
:10076600FFF83000FFFC3000FFFC3000FFFC3000DB
:10077600FFFC3000FFFC3000FFFC3000FFFC3000C7
:10078600FFFC1801FFF80C03FFF007FFFFE0000075
:1007960000000000000007FFFFE00E01FFF01C0054
:1007A600FFF838007FFC38007FFC38007FFC3800FB
:1007B6007FFC38007FFC38007FFC38007FFC380067
:1007C6007FFC1C00FFF80E01FFF007FFFFE00000B2
:1007D60000000000000007FFFFE00F00FFF01E0012
:1007E6007FF83C003FFC3C003FFC3C003FFC3C00EB
:1007F6003FFC3C003FFC3C003FFC3C003FFC3C0017
:100806003FFC1E007FF80F00FFF007FFFFE000002F
:1008160000000000000007FFFFE00FC03FF01F8050
:100826001FF83F000FFC3F000FFC3F000FFC3F008E
:100836000FFC3F000FFC3F000FFC3F000FFC3F008A
:100846000FFC1F801FF80FC03FF007FFFFE00000FE
:1008560000000000000007FFFFE00FC03FF01F8010
:100866001FF83F000FFC3F000FFC3F000FFC3F004E
:100876000FFC3F000FFC3F000FFC3F000FFC3F004A
:100886000FFC1F801FF80FC03FF007FFFFE00000BE
:1008960000000000000007FFFFE00FE01FF01FC090
:1008A6000FF83F8007FC3F8007FC3F8007FC3F8036
:1008B60007FC3F8007FC3F8007FC3F8007FC3F802A
:1008C60007FC1FC00FF80FE01FF007FFFFE0000056
:1008D60000000000000007FFFFE00FF00FF01FE030
:1008E60007F83FC003FC3FC003FC3FC003FC3FC00A
:1008F60003FC3FC003FC3FC003FC3FC003FC3FC0FA
:1009060003FC1FE007F80FF00FF007FFFFE0000001
:1009160000000000000007FFFFE00FF807F01FF0DF
:1009260003F83FE001FC3FE001FC3FE001FC3FE053
:1009360001FC3FE001FC3FE001FC3FE001FC3FE041
:1009460001FC1FF003F80FF807F007FFFFE00000B7
:1009560000000000000007FFFFE00FFC03F01FF897
:1009660001F83FF000FC3FF000FC3FF000FC3FF0D8
:1009760000FC3FF000FC3FF000FC3FF000FC3FF0C5
:1009860000FC1FF801F80FFC03F007FFFFE0000072
:1009960000000000000007FFFFE00FFE01F01FFC53
:1009A60000F83FF8007C3FF8007C3FF8007C3FF8F9
:1009B600007C3FF8007C3FF8007C3FF8007C3FF865
:1009C600007C1FFC00F80FFE01F007FFFFE00000AF
:1009D60000000000000007FFFFE00FFF00F01FFE11
:1009E60000783FFC003C3FFC003C3FFC003C3FFCE9
:1009F600003C3FFC003C3FFC003C3FFC003C3FFC15
:100A0600003C1FFE00780FFF00F007FFFFE000002C
:100A160000000000000007FFFFE00FFF80701FFFCF
:100A260000383FFE001C3FFE001C3FFE001C3FFE40
:100A3600001C3FFE001C3FFE001C3FFE001C3FFE4C
:100A4600001C1FFF00380FFF807007FFFFE000004B
:100A560000000000000007FFFFE00FFFC0301FFF8F
:100A660080183FFF000C3FFF000C3FFF000C3FFFCC
:100A7600000C3FFF000C3FFF000C3FFF000C3FFF48
:100A8600000C1FFF80180FFFC03007FFFFE00000BB
:100A960000000000000007FFFFE00FFFE0101FFF4F
:100AA600C0083FFF80043FFF80043FFF80043FFFF4
:100AB60080043FFF80043FFF80043FFF80043FFF28
:100AC60080041FFFC0080FFFE01007FFFFE00000D3
:100AD60000000000000007FFFFE00FFFE0101FFF0F
:100AE600C0083FFF80043FFF80043FFF80043FFFB4
:100AF60080043FFF80043FFF80043FFF80043FFFE8
:100B060080041FFFC0080FFFE01007FFFFE0000092
:100B160000001B0C1112030415060718091A1B0CFA
:100B2600111203140415060718091A0B1C111203D7
:100B36001405160708190A1B0C11120314150617BB
:100B460008091A0B1C011202131405160718091AB4
:100B56000B1C0112031405161708190A1B0C1102A7
:100B660013040516170718190A1B0C11021304059E
:100B7600160718191A0B1C11020314050617081973
:100B86000A1B1C111203041505061708190A1B1C5B
:100B96001102130415060718091A0B1C1102131467
:100BA60005160708190A1B0C11021314041506175B
:100BB60008190A1B0C1102130415160718091A0B3B
:100BC6001C011203140516071819091A0B1C011229
:100BD600030415061718190A1B0C1102130405162F
:100BE6000718190A1B1C0112031405061607180913
:100BF6001A1B1C0112031405061708190A1B1C11DF
:100C060002130415060718090A1B1C011213140403
:100C160015060718091A0B1C00003B009D011D0351
:100C26007F04E2056207C408440AA70B090D890E72
:100C3600EB0F4D11CD123014B01512177518F519AA
:100C4600571BB91C391E9B1FFE207E22E023602500
:100C5600C2262428A429072B692CE92D4C2FCC3039
:100C66002E32903310357236D4375439B73A1A3C8F
:100C76009A3DFC3E7C40DE414043C04422468547C7
:100C86000549684AE74B4A4DAC4E2B508E51F052FF
:100C96007054D3553557B558175A975BF95C5C5E57
:100CA600DC5F3E61A1622164836503676568C7698D
:100CB600476BAA6C0C6E8C6FEF705172D1733375E3
:100CC600B37615787879F87A5A7CBD7D3C7F9E801C
:100CD6001E828083E3846386C6872889A88A0A8C55
:100CE6006C8DEC8E19008701F4026104CE053C0779
:100CF600A908160A830BF10C5E0ECB0F3811A6124B
:100D060013148015ED165B18C819351BA21C101E8E
:100D16007D1FEA205722C52332259F260C287A29D3
:100D2600E72A542CC12D2F2F9C3009327633E43418
:100D36005136BE372B39993A063C733DE03E4E405C
:100D4600BB412843954403467047DD484A4AB84BA1
:100D5600254D924EFF4F6D51DA524754B4552257E6
:100D66008F58FC59695BD75C445EB15F1E618C622B
:100D7600F9636665D3664168AE691B6B886CF66D70
:100D8600636FD0703D72AB7318758576F2776079B4
:100D9600CD7A3A7CA77D157F8280EF815C83CA84F9
:100DA6003786A48711897F8AEC8B598DC68E000001
:100DB60002000E001B002700330040004C005900C3
:100DC600650071007E008A009600A300AF00BC009B
:100DD600C800D400E100ED00F900060112011E0171
:100DE6002B013701440150015C0169017501810144
:100DF6008E019A01A701B301BF01CC01D801E4011C
:100E0600F101FD010902160222022F023B024702EE
:100E1600540260026C027902850292029E02AA02C4
:100E2600B702C302CF02DC02E802F40201030D039B
:100E36001A03260332033F034B035703640370036D
:100E46007D0389039503A203AE03BA03C703D30345
:100E5600DF03EC03F803050411041D042A04360419
:100E660042044F045B046804740480048D049904EE
:100E7600A504B204BE04CA04D704000000001F0083
:100E86003B005A0078009700B500D400F30011012A
:100E960030014E01000000001F003C005B0079009D
:100EA6009800B600D500F400120131014F0101008F
:100EB60011001E00FFFFFFFFFFFFFFFFFFFFFFFF09
:100EC600FFFFFFFFFFFFFFFFFFFFFFFFFFFFFFFF2C
:100ED600FFFFFFFFFFFFFFFFFFFFFFFFFFFFFFFF1C
:100EE600FFFFFFFFFFFFFFFFFFFFFFFFFFFFFFFF0C
:100EF600FFFFFFFFFFFFFFFFFFFFFFFFFFFFFFFFFC
:100F0600FFFFFFFFFFFFFFFFFFFFFFFFFFFFFFFFEB
:100F1600FFFFFFFFFFFFFFFFFFFFFFFFFFFFFFFFDB
:100F2600FFFFFFFFFFFFFFFFFFFFFFFFFFFFFFFFCB
:100F3600FFFFFFFF01000003B40E01000303B60E1E
:100F460001000F03B80E80003A03BA0E0000F894B1
:100F5600EE27EFBBF1E0F5BFE5BFF8E1A895A4B732
:100F6600A77FA4BFF0936000E09360008DE0A2E04D
:100F7600BB27ED938A95E9F780E098E0A0E0B1E021
:100F8600ED930197E9F7EAE3FFE0859195910097E4
:100F960061F0A591B59105901590BF01F0010590FE
:100FA6000D920197E1F7FB01F0CFE0E0EEBBEFEF2A
:100FB600EDBFE8E0EEBFC0E0D3E00C94D62DE881AB
:100FC600AAE0EA02F001E883E881E150E883EF5FF6
:100FD600D9F734C2EA93299B02C0299801C0299AFD
:100FE600E0913903E6BDE9911895E881F981A0E61B
:100FF600BAEE0E94BC33E0932503F0932603A0913A
:101006002503B0912603E4E00E94B133E0932B035D
:10101600F0932C03E2E00E94B133E0932703F093B0
:1010260028030E943A2EF695E795E0932903F0935C
:101036002A030E943A2E0E949F33E0932D03F093D9
:101046002E030E943A2E0E949D33E0932F03F093C5
:1010560030030E943A2E0E949B33E0933103F093B3
:1010660032030E943F2EE6E0F0E00E94BC33E0939C
:101076003303F09334030E943F2EECE0F0E00E942D
:10108600BC33E0933503F09336030E943F2EE8E12C
:10109600F0E00E94BC33E0933703F0933803B1C10C
:1010A600E881E0933903E6BDE4E0E5BDC7C1E0E0D1
:1010B600E5BD299A0895A881B9810E94013448F4B2
:1010C600E4E6EA937CDFE881F9813197E883F983E6
:1010D600F2CF97C1EA81FB81309719F0EA81EA9352
:1010E600DFDFE881F981FA93EA93E5DFE0DF249612
:1010F6000895EDE0F0E00E94442E0E94512E0E94D9
:10110600682E0E946D2E0E94682E0E94512E0E940B
:10111600722E0E947F2E0E94842E0E94722E0E94A2
:101126007F2E0E94842E0E94892E0E94682E0E9485
:10113600922E0E94842E0E94682E0E947F2E0E946C
:10114600972E0E946D2E0E94892E0E94682E0E9464
:10115600922E0E94842E0E94682E0E947F2E0E944C
:10116600972E0E946D2E0E949C2E0E94A92EE2EEC2
:10117600F0E0FA93EA930E949C2E0E94A92EE2EEDA
:10118600F0E00E94AE2E55C0EFE0F0E00E94442E43
:101196000E946D2E0E94682E0E94B52E0E946D2E12
:1011A6000E94682E0E947F2EE3EDF0E00E94AE2E94
:1011B6000E94BA2E0E94682E0E946D2E0E94682EF2
:1011C6000E94B52E0E946D2E0E94682E0E94842ECB
:1011D6000E94682EE3EDF0E00E94AE2E0E94BA2E29
:1011E6000E94682E0E946D2E0E94682EE4EEF0E0AA
:1011F600FA93EA930E94682E0E94922E0E94972EDE
:101206000E94972EEEECF0E00E94AE2E0E94BF2EBA
:101216000E94BF2E0E94BF2EFA93EA935BDF0E94C4
:10122600972E0E947F2EE3EDF0E0FA93EA930E9458
:101236003A2EFA93EA934EDF08951A9311E0439AF1
:10124600439880E897E00197F1F7439A3B9888E145
:1012560091E00197F1F7E0E03399E1E01E2F80E499
:1012660096E00197F1F73B9AE12F86C1439880E219
:101276008A95F1F7E881E03011F4439801C0439A6A
:1012860088ED90E00197F1F7439A85E38A95F1F7A7
:10129600D5C01A93439880E28A95F1F7439A3B9812
:1012A60080E38A95F1F7E0E03399E1E01E2F8CEDBB
:1012B60090E00197F1F73B9AE12F5EC11A9310E097
:1012C600183050F4E981E170EA93D0DFE9810E9499
:1012D600CC2EE9831F5FF4CF93C01A930A9300E0E4
:1012E60010E0183058F4E02F0E94CC2E0E2FD1DFDC
:1012F600E795E0E0E7950E2B1F5FF3CFE02FEEC0FA
:101306009CDFE030E9F7ECECEA93D8DFE4E4EA931B
:10131600D5DF08951A930A9310E000E03B9A8DDF1B
:10132600E030E9F7ECECEA93C9DFEEEBEA93C6DFCF
:10133600D4DF1E2FD2DF0E2FA02FB0E0E0E0F1E0C9
:101346000E94B733DF01EE27A10FBE1FFD010E94E9
:101356009233E0930F03F0931003D2DFBFC0A8814E
:10136600B9810E94013430F4E881F9813197E8832C
:10137600F983F5CF46C00E94D02EA8810E94DA2EAE
:10138600E295E07F6E2FA8810E94E02EE62BEA937D
:101396000E9447330E94223334C00E94D02EE88137
:1013A600EA930E9447330E9422332BC01A930E946D
:1013B600D02E0E94E62EEF706E2F0E94F52E0E9410
:1013C6009233AAE0EA02F001E60F1E2FE12F18C0C1
:1013D6001A930E94D02E0E94E62E12C01A9310E095
:1013E600183070F4E12FA0E80E947833A981EA232F
:1013F60011F45D9801C05D9A5B985B9A1F5FF0CF10
:10140600188122960895E8810E94F82E19F45998B9
:101416005E9813C0E230A0E0FA0719F4599A5E9874
:101426000CC0E330A0E0FA0711F4599805C0E43087
:10143600A0E0FA0719F4599A5E9A589A21960895E7
:101446000E94073431E0353098F510E01830C8F4C2
:1014560000E10130A0F0A02FBB270E94FD2E0E94C4
:10146600002F0E94052FDF01EE27A10FBE1FEC9172
:10147600EA93B4DF0E940A2F34970E2FEACF1F5F3C
:10148600E5CF5C985C9A0E94FD2EA5E0B0E0AE1B0D
:10149600BF0BAA93B8DFCA92BA9261DF5898E8EEFA
:1014A600F3E0EB19FC09FA93EA9359DF3F5FCBCFE0
:1014B60009C31A930A9310E0103178F400E008305B
:1014C60050F40E94F52E0E94052F0E940D2FEFEF7B
:1014D600EC930F5FF4CF1F5FEFCFB2DF0991199145
:1014E60008951A9311E0113110F00C94BF0A0E946E
:1014F600F52E31970E94052FBF01A92D0E94DA2EE5
:101506000E94122F0E94182F0E941F2FBF01A92D83
:101516000E94E02E0E94122F0E94182F0E94252F53
:10152600E45CFC4F0E942A2F0E94332F0E94392F21
:101536000E94122F0E94182F0E943C2F0E94422FB9
:101546000E94122F0E94182F0E94252FE15CFC4F4B
:101556000E942A2F0E94452F0E944B2F0E94122F75
:101566000E94182F0E944E2F0E94542F0E94122F65
:101576000E94572F1F5FB7CF199108950E945E2FC3
:1015860000E00F3010F00C94080B10E11130A8F1B8
:101596000E94F52E0E94252FE25CFC4F0F010E944F
:1015A6000A2F0E94632F0E94702F0E94252FE15C54
:1015B600FC4F0F010E940A2F0E94632F31960E9452
:1015C600702F0E94252FE05CFC4F0F010E940A2F0E
:1015D6000E94632F32960E94702F0E94252FEF5B88
:1015E600FC4F0F010E940A2F0E94632F3396E4914D
:1015F600E095D001EC931150C9CF30E0333018F4A8
:101606001FDF3F5FFBCF0F5FBCCFE1E0EDBB5AC2F0
:101616000E945E2F00E1013010F40C94560B10E18D
:101626001130C8F10E94F52E0E94252FE25CFC4F76
:101636000F010E940A2F31970E94632F0E94702F7C
:101646000E94252FE15CFC4F0F010E940A2F319763
:101656000E94632F31960E94702F0E94252FE05C16
:10166600FC4F0F010E940A2F31970E94632F32967A
:101676000E94702F0E94252FEF5BFC4F0F010E94E6
:101686000A2F31970E94632F3396E491E095D0019B
:10169600EC931150C5CF30E0333018F4D1DE3F5F04
:1016A600FBCF0150B8CFE1E0EDBB0CC20E9407347E
:1016B6000E94752F11F40C94CB0B30E03E30E8F409
:1016C60010E1123090F00E94F52E0F010E94452F76
:1016D6000E947C2F0E94822F0F010E944E2F0E9493
:1016E6007C2F0E94872F1150ECCF00E0023018F4B7
:1016F600A7DE0F5FFBCF3F5FE1CF30E03E3058F50E
:10170600AD2D0E94DA2E0E948C2F0E94922F0E94ED
:10171600952F0E948C2F0E94922F0E949C2F0230A0
:1017260018F48EDE0F5FFBCF10E1123090F00E94AE
:10173600F52E0F010E94452F0E947C2F0E94822FBA
:101746000F010E944E2F0E947C2F0E94872F11505E
:10175600ECCF3F5FD3CF0E94A32F023018F470DE88
:101766000F5FFBCF10E1123090F00E94F52E0F01B3
:101776000E94452F0E947C2F0E94822F0F010E94FB
:101786004E2F0E947C2F0E94872F1150ECCF91C1C3
:10179600E0E0ED1511F4EE1509F4A3C030E03E309B
:1017A60058F510E1123000F10E94F52E0F010E944B
:1017B600332F0E947C2F0E94AA2F0F010E943C2FDC
:1017C6000E947C2F0E94AF2F0F010E94452F0E947E
:1017D6007C2F0E94822F0F010E944E2F0E947C2F89
:1017E6000E94872F1150DECF00E0023018F428DE69
:1017F6000F5FFBCF3F5FD3CF30E03E3010F00C944D
:10180600490CAE2D0E94DA2E0E948C2F0E94922F38
:101816000E94B42F0E948C2F0E94922F0E94BB2FF1
:101826000E948C2F0E94922F0E94952F0E948C2F2F
:101836000E94922F0E949C2F023018F401DE0F5F47
:10184600FBCF10E1123000F10E94F52E0F010E942D
:10185600332F0E947C2F0E94AA2F0F010E943C2F3B
:101866000E947C2F0E94AF2F0F010E94452F0E94DD
:101876007C2F0E94822F0F010E944E2F0E947C2FE8
:101886000E94872F1150DECF3F5FB7CF0E94C22F35
:10189600023018F4D5DD0F5FFBCF10E1123000F1F6
:1018A6000E94F52E0F010E94332F0E947C2F0E946A
:1018B600AA2F0F010E943C2F0E947C2F0E94AF2F5F
:1018C6000F010E94452F0E947C2F0E94822F0F013C
:1018D6000E944E2F0E947C2F0E94872F1150DECF30
:1018E600E3C0E0E0ED1511F4EE1509F0E7C030E0D5
:1018F6003E30C0F510E1123068F10E94F52E0E94CC
:10190600C82F0E94CB2F0E94CF2F0F010E941F2F9E
:101916000E947C2F0E94D22F0F010E94332F0E941B
:101926007C2F0E94AA2F0F010E943C2F0E947C2F21
:101936000E94AF2F0F010E94452F0E947C2F0E940C
:10194600822F0F010E944E2F0E947C2F0E94872F0C
:101956001150D1CF00E0023018F472DD0F5FFBCFDB
:101966003F5FC6CF30E03E3010F00C941C0D0E9455
:10197600D52F0E948C2F0E94922F0E94D82F0E9452
:10198600DE2F0E948C2F0E94922F0E94E12FAE2DF7
:101996000E94DA2E0E948C2F0E94922F0E94B42F52
:1019A6000E948C2F0E94922F0E94BB2F0E948C2F88
:1019B6000E94922F0E94952F0E948C2F0E94922F98
:1019C6000E949C2F023018F43BDD0F5FFBCF10E125
:1019D600123068F10E94F52E0E94C82F0E94CB2F6C
:1019E6000E94CF2F0F010E941F2F0E947C2F0E9462
:1019F600D22F0F010E94332F0E947C2F0E94AA2F04
:101A06000F010E943C2F0E947C2F0E94AF2F0F01D6
:101A16000E94452F0E947C2F0E94822F0F010E9458
:101A26004E2F0E947C2F0E94872F1150D1CF3F5FEF
:101A36009ACF0E94E72F0E94C22F023018F400DDD1
:101A46000F5FFBCF10E1123068F10E94F52E0E9465
:101A5600C82F0E94CB2F0E94CF2F0F010E941F2F4D
:101A66000E947C2F0E94D22F0F010E94332F0E94CA
:101A76007C2F0E94AA2F0F010E943C2F0E947C2FD0
:101A86000E94AF2F0F010E94452F0E947C2F0E94BB
:101A9600822F0F010E944E2F0E947C2F0E94872FBB
:101AA6001150D1CF0E94E72FEFEFE0933D03E09373
:101AB6003E03EFEFE0934003E0934103E2E0F0E002
:101AC600BE0ECF1E0E940E34249608951A930A93D2
:101AD6000E94752F11F40C94E50DAD2D0E94ED2F8B
:101AE60011F00C94BF0D00E0083008F511E011313B
:101AF60040F40E94F52E0E94452F0E94F62F1F5F8C
:101B0600F6CF0E940130113180F40E94F52E0E941A
:101B1600452F7E2F8F2F6081AD2D0E94DA2E0E94D9
:101B2600122F0E940B301F5FEECF0F5FDDCF00E05C
:101B3600083008F511E0113140F40E94F52E0E949C
:101B46004E2F0E94F62F1F5FF6CF0E9401301131F3
:101B560080F40E94F52E0E944E2F7E2F8F2F6081DB
:101B6600AD2D0E94E02E0E94122F0E940B301F5FA7
:101B7600EECF0F5FDDCF25C011E0113100F50E94D9
:101B8600F52E0E94452F0E9419300E944E2FA0E08C
:101B9600A083113081F00E94F52E0E941C300E9415
:101BA600122F0E9422300E94F52E0E9429300E9498
:101BB600122F0E9422300E942F301F5FDECF0E941C
:101BC6003730BAC0E0E0ED1511F4EE1509F440C067
:101BD60011E01131E0F50E94F52E0E94332F0E948C
:101BE60019300E943C2F0E9419300E94452F0E94F6
:101BF60019300E944E2FA0E0A083113021F10E94DF
:101C0600F52E0E943D300E94392F0E94122F0E940D
:101C160022300E94F52E0E9443300E94422F0E94DD
:101C2600122F0E9422300E94F52E0E941C300E9424
:101C3600122F0E9422300E94F52E0E9429300E9407
:101C4600122F0E9422300E942F301F5FC2CF6DC01C
:101C5600E0E0ED1511F4EE1509F06EC011E011315A
:101C660010F00C94930E0E94F52E31970E94052FCA
:101C76000E9419300E941F2F0E9419300E94332F94
:101C86000E9419300E943C2F0E9419300E94452F55
:101C96000E9419300E944E2FA0E0A0831130E1F17E
:101CA6000E94F52E0E943D30BF01A92D0E94DA2E1A
:101CB6000E94122F0E9422300E94F52E0E9443306D
:101CC600BF01A92D0E94E02E0E94122F0E942230F1
:101CD6000E94F52E0E943D300E94392F0E94122F3D
:101CE6000E9422300E94F52E0E9443300E94422F0D
:101CF6000E94122F0E9422300E94F52E0E941C3054
:101D06000E94122F0E9422300E94F52E0E94293036
:101D16000E94122F0E9422300E942F301F5F9FCFF9
:101D2600EFEFE093B203E093B303EFEFE093B50375
:101D3600E093B6030E943730E2E0F0E0BE0ECF1E1D
:101D46000991199108950E940534A0910303BB27B8
:101D5600E4E0F0E00E94D733309729F40E9449303E
:101D6600AAE9BEE004C00E944930A0E8BEE0F0E067
:101D76000E9456300E94F333DB01AE0FBF1F0E9454
:101D86005B30EA0FFB1F8F0101501040EE81AEE180
:101D9600BCE0F0E00E9456300E94F7330A1B1B0B92
:101DA600EE81A4EBBDE0F0E00E9456300E94F333D2
:101DB6009F012630E1E03E0798F4002E012A81F0CB
:101DC6000135E3EC1E0760F4F9010E945E3018F05D
:101DD6000E51104002C00D5110402F5F3F4FE9CF0A
:101DE600002E012A81F4F90131970E945E3030F00D
:101DF6000E9463300E9468305EE104C00E94633036
:101E060044915DE112C0F90131970E945E3038F0CD
:101E16000E9463300E946830E02FE25E05C00E9497
:101E260063304491E02FE35E5E2FF42FE0E09F01E4
:101E3600E52FF0E02E0F3F1FF9010E940C34299682
:101E460008951A930A93E0910103EA93E09102033D
:101E5600EA93E0910303EA9376DF8F01E02FE093A4
:101E66000C0310930D03E3C31A930A9301E00830A1
:101E760080F511E0113158F50E94F52E31970E9438
:101E8600052FDF010E940A2F0E946D3031970E94B4
:101E9600052FDF010E940A2F0E94723031970E949F
:101EA600052FDF010E940A2F0E947A3031970E9487
:101EB600052FDF010E940A2F0E947F3031970E9472
:101EC600052F0E940D2F0E9484301F5FD3CF0F5F16
:101ED600CECF11E01131B0F40E94F52E0E944E2FA4
:101EE6000E948F300E94F52E0E949430ABE2B0E043
:101EF6000E94A933E85BFE4FE50DF61D0E949F3058
:101F06001F5FE8CF0E94B23051F40E94BB30EAE274
:101F1600F0E0E515F60518F455246624CADA10E053
:101F2600123018F48DDA1F5FFBCF81C31A930A9320
:101F360001E0083080F511E0113158F50E94F52EC8
:101F460031970E94052FDF010E940A2F0E946D30F3
:101F560031970E94052FDF010E940A2F0E947230DE
:101F660031970E94052FDF010E940A2F0E947A30C6
:101F760031970E94052FDF010E940A2F0E947F30B1
:101F860031970E94052F0E940D2F0E9484301F5FFB
:101F9600D3CF0F5FCECF11E0113110F00C9430107B
:101FA6000E94F52E0E944E2F0E948F30E52DF62DB1
:101FB600309719F4E6E0F0E048C0E130A0E0FA0717
:101FC60019F4EEE0F0E041C0E230A0E0FA0719F4BF
:101FD600E2E0F0E03AC0E330A0E0FA0719F4E3E00B
:101FE600F0E033C0E430A0E0FA0719F4E8E0F0E0EE
:101FF6002CC0E530A0E0FA0719F4E8E1F0E025C0CE
:10200600E630A0E0FA0719F4EBE1F0E01EC0E73095
:10201600A0E0FA0719F4E2E0F0E017C0E830A0E02B
:10202600FA0719F4EEE0F0E010C0E930A0E0FA0794
:1020360019F4ECE0F0E009C0EB30A0E0FA0719F47F
:10204600EEE1F0E002C0EDE1F0E07E2E8F2E0E9480
:10205600F52E0E94C2301F5F9FCF0E94B23011F44E
:102066000E94BB3010E0133018F4EAD91F5FFBCF93
:10207600DEC21A930A9305E0083080F511E01131AB
:1020860058F50E94F52E31970E94052FDF010E9418
:102096000A2F0E946D3031970E94052FDF010E94A2
:1020A6000A2F0E94723031970E94052FDF010E948D
:1020B6000A2F0E947A3031970E94052FDF010E9475
:1020C6000A2F0E947F3031970E94052F0E940D2F04
:1020D6000E9484301F5FD3CF0F5FCECF11E0113146
:1020E60010F00C94CB100E94F52E0E944E2F0E94E9
:1020F6008F30E52DF62D309709F440C0E130A0E091
:10210600FA0719F4E6E0F0E03BC0E230A0E0FA0797
:1021160019F4E8E0F0E034C0E330A0E0FA0719F47F
:10212600772488242FC0E430A0E0FA0719F4EDE004
:10213600F0E026C0E530A0E0FA0701F1E630A0E0C5
:10214600FA07E1F0E730A0E0FA0719F4E3E1F0E07E
:1021560017C0E830A0E0FA0719F4E7E0F0E010C095
:10216600E930A0E0FA0719F4EBE2F0E009C0EA3042
:10217600A0E0FA0719F4E8E0F0E002C0EDE1F0E0D3
:102186007E2E8F2E0E94F52E0E94C2301F5FA7CF93
:102196000E94B23011F40E94BB3010E0153018F4E2
:1021A6004FD91F5FFBCF43C21A930A9305E008304D
:1021B60080F511E0113158F50E94F52E31970E94F5
:1021C600052FDF010E940A2F0E946D3031970E9471
:1021D600052FDF010E940A2F0E94723031970E945C
:1021E600052FDF010E940A2F0E947A3031970E9444
:1021F600052FDF010E940A2F0E947F3031970E942F
:10220600052F0E940D2F0E9484301F5FD3CF0F5FD2
:10221600CECF11E0113110F00C9457110E94F52E1B
:102226000E944E2F0E948F30E52DF62D309719F41F
:10223600E4E2F0E031C0E130A0E0FA0719F4EDE0A5
:10224600F0E02AC0E230A0E0FA0719F4E6E0F0E098
:1022560023C0E330A0E0FA07E9F0E430A0E0FA0793
:10226600C9F0E530A0E0FA0719F4EDE2F0E014C099
:10227600E630A0E0FA0719F4ECE2F0E00DC0E73032
:10228600A0E0FA0739F0E830A0E0FA0719F4E2E135
:10229600F0E002C0EDE1F0E07E2E8F2E0E94F52EDA
:1022A6000E94C2301F5FB6CF0E94B23011F40E9466
:1022B600BB3010E0153018F4C3D81F5FFBCFB7C191
:1022C6001A930A9305E0083080F511E0113158F5AC
:1022D6000E94F52E31970E94052FDF010E940A2FDA
:1022E6000E946D3031970E94052FDF010E940A2F50
:1022F6000E94723031970E94052FDF010E940A2F3B
:102306000E947A3031970E94052FDF010E940A2F22
:102316000E947F3031970E94052F0E940D2F0E9448
:1023260084301F5FD3CF0F5FCECF11E0113110F095
:102336000C94E6110E94F52E0E944E2F0E948F30BB
:10234600E52DF62D309719F4E3E1F0E034C0E130E5
:10235600A0E0FA0719F4E7E0F0E02DC0E230A0E0D3
:10236600FA0719F4E1E2F0E026C0E330A0E0FA074C
:1023760019F4E2E0F0E01FC0E430A0E0FA07C9F08B
:10238600E530A0E0FA07A9F0E630A0E0FA0719F474
:10239600E1E0F0E010C0E730A0E0FA0719F4E4E26B
:1023A600F0E009C0E830A0E0FA0719F4EEE0F0E04A
:1023B60002C0EDE1F0E07E2E8F2E0E94F52E0E94E7
:1023C600C2301F5FB3CF0E94B23011F40E94BB30FF
:1023D60010E0153018F434D81F5FFBCF28C11A93CC
:1023E6000A9305E0083080F511E0113158F50E9496
:1023F600F52E31970E94052FDF010E940A2F0E94B9
:102406006D3031970E94052FDF010E940A2F0E942E
:10241600723031970E94052FDF010E940A2F0E9419
:102426007A3031970E94052FDF010E940A2F0E9401
:102436007F3031970E94052F0E940D2F0E94843015
:102446001F5FD3CF0F5FCECF11E0113110F00C9488
:102456006B120E94F52E0E944E2F0E948F30E52DA2
:10246600F62D309719F4E8E0F0E02AC0E130A0E05C
:10247600FA0719F4EBE2F0E023C0E230A0E0FA0735
:10248600E9F0E330A0E0FA07C9F0E430A0E0FA078B
:1024960019F4E1E0F0E014C0E530A0E0FA0719F421
:1024A600EEE2F0E00DC0E630A0E0FA0739F0E730E2
:1024B600A0E0FA0719F4E6E0F0E002C0EDE1F0E092
:1024C6007E2E8F2E0E94F52E0E94C2301F5FBDCF3A
:1024D6000E94B23011F40E94BB3010E0153020F497
:1024E6000E94230A1F5FFACFA2C01A930A9305E03F
:1024F600083080F511E0113158F50E94F52E31971C
:102506000E94052FDF010E940A2F0E946D3031972D
:102516000E94052FDF010E940A2F0E947230319718
:102526000E94052FDF010E940A2F0E947A30319700
:102536000E94052FDF010E940A2F0E947F303197EB
:102546000E94052F0E940D2F0E9484301F5FD3CF5B
:102556000F5FCECF11E0113110F00C940E130E94D4
:10256600F52E0E944E2F0E948F30E52DF62D3097C6
:1025760019F4E6E0F0E047C0E130A0E0FA0709F41C
:1025860040C0E230A0E0FA0719F4E3E1F0E03BC016
:10259600E330A0E0FA0719F4E7E0F0E034C0E430F5
:1025A600A0E0FA0719F4E4E2F0E02DC0E530A0E07F
:1025B600FA0719F4E8E0F0E026C0E630A0E0FA07F2
:1025C60001F1E730A0E0FA07E1F0E830A0E0FA0711
:1025D60019F4E3E1F0E017C0E930A0E0FA0719F4D6
:1025E600E1E1F0E010C0EA30A0E0FA0719F4E1E317
:1025F600F0E009C0EB30A0E0FA0719F4EDE0F0E0F6
:1026060002C0EDE1F0E07E2E8F2E0E94F52E0E9494
:10261600C2301F5FA0CF0E94B23011F40E94BB30BF
:1026260010E0153020F40E94230A1F5FFACF0991AB
:10263600199108951A930A9301E0083080F511E084
:10264600113158F50E94F52E31970E94052FDF01B2
:102656000E940A2F0E946D3031970E94052FDF01DC
:102666000E940A2F0E94723031970E94052FDF01C7
:102676000E940A2F0E947A3031970E94052FDF01AF
:102686000E940A2F0E947F3031970E94052F0E94D8
:102696000D2F0E9484301F5FD3CF0F5FCECF11E086
:1026A600113110F00C94B8150E94F52E0E944E2F91
:1026B6000E948F30E52DF62D309739F40E94F52EC5
:1026C6000E94D430E8E6F4E03AC2E130A0E0FA072E
:1026D60039F40E94F52E0E94D430E8E6F6E02FC2C7
:1026E600E230A0E0FA0739F40E94F52E0E94D430B9
:1026F600E8EBF4E024C2E330A0E0FA0709F419C2DB
:10270600E430A0E0FA0739F40E94F52E0E94D43096
:10271600E8ECF4E014C2E530A0E0FA0739F40E94D0
:10272600F52E0E949430E850FC4F0BC2E630A0E034
:10273600FA0739F40E94F52E0E94D430E8E7F5E056
:10274600FEC1E730A0E0FA0709F4F3C1E830A0E0E3
:10275600FA0749F40E94F52E0E94D430E091040352
:102766000E94DE30ECC1E930A0E0FA0749F40E948D
:10277600F52E0E94D430E09105030E94DE30DFC1C1
:10278600EA30A0E0FA0749F40E94F52E0E94D43000
:10279600E09106030E94DE30D2C1EB30A0E0FA07DA
:1027A60049F40E94F52E0E94D430E09107030E945E
:1027B600DE30C5C1EC30A0E0FA0749F40E94F52EE0
:1027C6000E94D430E09108030E94DE30B8C1ED309B
:1027D600A0E0FA0749F40E94F52E0E94D430E09159
:1027E60009030E94DE30ABC1EE30A0E0FA0749F4DF
:1027F6000E94F52E0E94D430E0910A030E94DE303A
:102806009EC1EF30A0E0FA0709F493C1E031A0E0E1
:10281600FA0739F40E94F52E0E94D430E8ECF4E071
:102826008EC1E131A0E0FA0739F40E94F52E0E942C
:10283600D430E8E5F4E083C1E231A0E0FA0739F4E8
:102846000E94F52E0E94D430E8E2F6E078C1E3312A
:10285600A0E0FA0739F40E94F52E0E94D430E8E78A
:10286600F5E06DC1E431A0E0FA0709F462C1E53193
:10287600A0E0FA0779F40E94F52E0E944E2F7E2FD3
:102886008F2F60810E94E4300E94122F3197EA0F49
:10289600FB1F57C1E631A0E0FA0779F40E94F52E36
:1028A6000E944E2F7E2F8F2F60810E94E7300E945C
:1028B600122F3197EA0FFB1F44C1E731A0E0FA0758
:1028C60039F40E94F52E0E94D430E8E5F6E037C1CF
:1028D600E831A0E0FA0779F40E94F52E0E944E2F07
:1028E6007E2F8F2F60810E94EA300E94122F31972F
:1028F600EA0FFB1F26C1E931A0E0FA0779F40E942E
:10290600F52E0E944E2F7E2F8F2F60810E94ED3074
:102916000E94122F3197EA0FFB1F13C1EA31A0E084
:10292600FA0739F40E94F52E0E94D430E8E5F6E065
:1029360006C1EB31A0E0FA0739F40E94F52E0E9499
:10294600D430E8E8F0E0FBC0EC31A0E0FA0739F457
:102956000E94F52E0E949430E859FF4FF2C0ED31E7
:10296600A0E0FA0779F40E94F52E0E944E2F7E2FE2
:102976008F2F60810E94D52F0E94122F3197EA0F68
:10298600FB1FDFC0EE31A0E0FA0779F40E94F52EB6
:102996000E944E2F7E2F8F2F60810E94DE2F0E9475
:1029A600122F3197EA0FFB1FCCC0EF31A0E0FA07D8
:1029B60009F4BFC0E032A0E0FA0771F40E94F52ED8
:1029C6000E944E2F0E94F0300E94BC330E94122FAC
:1029D6003197EA0FFB1FB5C0E132A0E0FA0771F4A8
:1029E6000E94F52E0E944E2F0E94F0300E94D43392
:1029F6000E94122F3197EA0FFB1FA3C0E232A0E01C
:102A0600FA0739F40E94F52E0E94D430E8E8F6E081
:102A160096C0E332A0E0FA0739F40E94F52E0E9430
:102A2600D430E8E1F4E08BC0E432A0E0FA0709F420
:102A360080C0E532A0E0FA0739F40E94F52E0E9424
:102A4600D430E8E1F6E07BC0E632A0E0FA0739F4DC
:102A56000E94F52E0E94D430E8EAF4E070C0E73216
:102A6600A0E0FA0739F40E94F52E0E94D430E8EB74
:102A7600F5E065C0E832A0E0FA0789F40E94F52E79
:102A86000E944E2F7E2F8F2F6081A0910C030E94F3
:102A9600DA2E0E94122F3197EA0FFB1F52C0E9323D
:102AA600A0E0FA0789F40E94F52E0E944E2F7E2F91
:102AB6008F2F6081A0910C030E94E02E0E94122F9E
:102AC6003197EA0FFB1F3DC0EA32A0E0FA0739F45E
:102AD6000E94F52E0E94D430E8E5F6E030C0EB32D5
:102AE600A0E0FA0789F40E94F52E0E944E2F7E2F51
:102AF6008F2F6081A0910D030E94DA2E0E94122F63
:102B06003197EA0FFB1F1DC0EC32A0E0FA0789F4EB
:102B16000E94F52E0E944E2F7E2F8F2F6081A0914E
:102B26000D030E94E02E0E94122F3197EA0FFB1F21
:102B360008C0E12FF0E00E94D430E8ECF5E0E00DAB
:102B4600F11D1490E32DA0E80E947833E121F0E016
:102B5600DF01E7E0F0E0E319F4090E948033E62B99
:102B6600A72FB82FEC931F5F9BCD0E94B23011F4B4
:102B76000E94BB3010E0133020F40E94230A1F5F2E
:102B8600FACFF1C11A930A9301E0083080F511E0FB
:102B9600113158F50E94F52E31970E94052FDF015D
:102BA6000E940A2F0E946D3031970E94052FDF0187
:102BB6000E940A2F0E94723031970E94052FDF0172
:102BC6000E940A2F0E947A3031970E94052FDF015A
:102BD6000E940A2F0E947F3031970E94052F0E9483
:102BE6000D2F0E9484301F5FD3CF0F5FCECF11E031
:102BF600113110F00C94CF160E94F52E0E944E2F24
:102C06000E948F30E52DF62D309739F40E94F52E6F
:102C16000E94D430E8E1F4E0B9C0E130A0E0FA0760
:102C260039F40E94F52E0E94D430E8E6F4E0AEC0F6
:102C3600E230A0E0FA0739F40E94F52E0E94D43063
:102C4600E8E0F6E0A3C0E330A0E0FA0739F40E941A
:102C5600F52E0E94D430E8E1F4E098C0E430A0E01C
:102C6600FA0709F48DC0E530A0E0FA0739F40E94AE
:102C7600F52E0E94D430E8EBF4E088C0E630A0E000
:102C8600FA0739F40E94F52E0E94D430E8EDF6E0FA
:102C96007DC0E730A0E0FA0739F40E94F52E0E94C5
:102CA600D430E8ECF4E072C0E830A0E0FA0739F47A
:102CB6000E94F52E0E94D430E8E5F4E067C0E930C2
:102CC600A0E0FA0709F45CC0EA30A0E0FA0739F49C
:102CD6000E94F52E0E94D430E8E1F5E057C0EB30B3
:102CE600A0E0FA0739F40E94F52E0E94D430E8E7F6
:102CF600F4E04CC0EC30A0E0FA0739F40E94F52E5F
:102D06000E94D430E8ECF4E041C0ED30A0E0FA07D0
:102D160039F40E94F52E0E94D430E8E6F4E036C07D
:102D2600EE30A0E0FA0761F1EF30A0E0FA0739F4DF
:102D36000E94F52E0E94D430E8ECF4E027C0E03182
:102D4600A0E0FA0739F40E94F52E0E94D430E8E696
:102D5600F4E01CC0E131A0E0FA0739F40E94F52E38
:102D66000E94D430E8E7F6E011C0E231A0E0FA07AD
:102D760039F40E94F52E0E94D430E8E2F5E006C050
:102D8600E12FF0E00E94D430E8ECF5E0E00DF11D13
:102D96000E949F301F5F2CCF0E94B23011F40E9418
:102DA600BB3010E0133020F40E94230A1F5FFACFD5
:102DB600DAC01A930A9308E0023010F40C9425172F
:102DC60011E01131E8F50E94F52E31970E94052F8A
:102DD600DF010E940A2F0E946D3031970E94052F55
:102DE600DF010E940A2F3197AE0FBF1FEC910E94A0
:102DF600CC2ED001EC930E94F52E31970E94052F20
:102E0600DF010E940A2F0E947A3031970E94052F17
:102E1600DF010E940A2F0E947F3031970E94052F02
:102E2600DF010E940A2F3297AE0FBF1FEC91E170AF
:102E3600E795E0E0E795E029DB01EC931F5FC1CF62
:102E46000150BACF11E0113110F00C9498170E947E
:102E5600F52E31970E94052FDF01EC910E94CC2EB2
:102E6600EC93E52DF62D309721F4AD2D0E94E02E42
:102E760038C0E130A0E0FA0721F4AD2D0E94DA2E29
:102E860030C0E230A0E0FA0719F4EAE0F0E029C029
:102E9600E330A0E0FA0721F4AE2D0E94E02E21C017
:102EA600E430A0E0FA0721F4AE2D0E94DA2E19C014
:102EB600E530A0E0FA0719F4EAE0F0E012C0E630E7
:102EC600A0E0FA0721F4A92D0E94E02E0AC0E730FF
:102ED600A0E0FA0721F4A92D0E94DA2E02C0E1E053
:102EE600F0E07E2E8F2E0E94F52E31970F010E9464
:102EF600052F7E2F8F2F6081E72DF82D0E94FA3047
:102F0600E00DF11D1490E32DA1E00E947033E12144
:102F1600AE2FE7E0F0E0E319F4090E947033E62BE8
:102F2600A72FB82FEC931F5F8ECF0E94B23011F4FB
:102F36000E94BB3010E0123020F40E94230A1F5F6B
:102F4600FACF11C01A930A9300E010E00835E1E0C9
:102F56001E072CF40E94370F0F5F1F4FF7CF552423
:102F66006624332444240991199108950E94073454
:102F760030E03131E8F568E575E00E94FD2E0E94EB
:102F8600FF300E94D82F68E374E00E94FD2E0E9455
:102F9600FF300E94E12F68E074E00E94FD2E0E943F
:102FA600FF300E94023100E0033020F40E94230A21
:102FB6000F5FFACF10E11230C8F00E94F52E0E9482
:102FC600C82F0E94CB2F0E94CF2F0F010E941F2FC8
:102FD6000E947C2F0E94D22F0E9408310E940D3140
:102FE600E45CFC4FE081EC931150E5CF3F5FC1CF2D
:102FF60030E0313110F00C94461868E175E00E941B
:10300600FD2E0E94FF300E9410310E9416310E9450
:10301600FF300E9419310E941F310E94FF300E942A
:10302600223168E374E00E94FD2E0E94FF300E9468
:103036002831033020F40E94230A0F5FFACF10E1F3
:103046001230F8F00E94F52E0F010E94332F0E94D5
:103056007C2F0E94AA2F0F010E943C2F0E947C2FDA
:103066000E94AF2F0E9408310E942F310E943231F8
:103076000F010E94452F0E947C2F0E94353111506E
:10308600DFCF3F5FB6CF30E03A3070F511E0113157
:1030960040F40E94F52E0E944E2FAFEFA0831F5FD3
:1030A600F6CF00E00A3020F40E94230A0F5FFACF21
:1030B60011E0113180F40E94F52E0E94252FEF5B5E
:1030C600FC4F0F01E8EBF5E0E60FF71FE491D001A6
:1030D600EC931F5FEECF00E00A3020F40E94230A33
:1030E6000F5FFACF3F5FD0CF30E0383920F40E942F
:1030F600990F3F5FFACF5524662433244424E4E62F
:10310600F0E0BE2ECF2E00E0043620F40E94230A03
:103116000F5FFACF3CE03330F0F00E94FD2E32977D
:10312600ABE0B0E0AE1BBF0BE4E6F0E00E94B733C5
:10313600BE2ECF2E0E94FD2E0E94052FDF01EC91A0
:10314600EF79EC9300E0023320F40E94230A0F5F2C
:10315600FACF3150E0CF30E03A3078F511E0113156
:1031660048F40E94F52E31970E94052FAFEFA083F9
:103176001F5FF5CF00E00A3020F40E94230A0F5F9C
:10318600FACF11E0113180F40E94F52E3197BF017C
:103196000E94052F0F01E8EEF5E0E60FF71FE49118
:1031A600D001EC931F5FEECF00E00A3020F40E94BE
:1031B600230A0F5FFACF3F5FCFCF0E94B22330E0E2
:1031C600303418F4F6DD3F5FFBCFE0E0F0E05E2E32
:1031D6006F2E3E2E4F2E0E940E34249608950E9486
:1031E600073430E0313110F00C946B190E943A31FB
:1031F6000E94FF300E94D82F0E9416310E94FF3095
:103206000E94E12F68EF75E00E94FD2E0E94FF30BC
:103216000E9402310E943D310E94FF300E9410310F
:10322600A92D0E94DA2E0E948C2F0E94FF300E9448
:103236001931A92D0E94E02E0E948C2F0E94FF308A
:103246000E9422310E94A32F033020F40E94230AF9
:103256000F5FFACF10E11230C8F10E94F52E0E94DE
:10326600C82F0E94CB2F0E94CF2F0F010E941F2F25
:103276000E947C2F0E94D22F0E9408310E940D319D
:103286000E9440310F010E94332F0E947C2F0E9422
:10329600AA2F0F010E943C2F0E947C2F0E94AF2F65
:1032A6000E9408310E942F310E9432310F010E9484
:1032B600452F0E947C2F0E94822F0F010E944E2FC5
:1032C6000E947C2F0E94872F1150C5CF3F5F8ACF67
:1032D600E8EFF5E0049000923C030E94433129F0A8
:1032E600A0911E03A43109F041C00E944A311A3050
:1032F60020F40E94230A1F5FFACF9394E7E1E915B1
:1033060008F4992430E0313178F5A92D0E94DA2E9F
:103316000E948C2F0E94FF300E941931A92D0E9415
:10332600E02E0E948C2F0E94FF300E94223100E086
:10333600033020F40E94230A0F5FFACF10E1123007
:1033460088F00E94F52E0F010E943C2F0E947C2FD0
:103356000E94AF2F0E9408310E942F310E945031E7
:103366001150EDCF3F5FCFCFE1E0EDBB0E9455316D
:1033760029F0A0911E03A53109F041C00E944A31EF
:103386001A3020F40E94230A1F5FFACFE0E0E91505
:1033960010F49A9402C0E7E19E2E30E03F3068F5C3
:1033A600A92D0E94DA2E0E94FA30DF010E94FD2E1E
:1033B600EA0FFB1F04900092B603A92D0E94E02E8F
:1033C6000E94FA30DF010E94FD2E0E945A3100E071
:1033D600033020F40E94230A0F5FFACF10E01F305B
:1033E60050F40E94F52E0E9460310E946B310E94BB
:1033F60050311F5FF4CF3F5FD1CFE1E0EDBB0E94BC
:10340600763129F0A0911E03A63109F008C60E9464
:103416007B31E2E0EA939A920E94BE09329903C098
:103426000E94230AFBCF30E0313110F00C948E1A43
:1034360068EE74E00E94FD2E0E94FF300E94D82F95
:1034460068E674E00E94FD2E0E94FF300E94E12F84
:1034560068E076E00E94FD2E0E94FF300E94023155
:103466000E941F310E94FF300E9410310E943D31A0
:103476000E94FF300E941931AE2D0E94DA2E0E9462
:103486008C2F0E94FF300E942231AE2D0E94E02E2A
:103496000E948C2F0E94FF300E942831033020F4B6
:1034A6000E94230A0F5FFACF10E1123090F10E94BA
:1034B600F52E0E94C82F0E94CB2F0E94CF2F0F01FE
:1034C6000E941F2F0E947C2F0E94D22F0E9408313B
:1034D6000E940D310E9440310F010E94332F0E943D
:1034E6007C2F0E94AA2F0F010E943C2F0E947C2F46
:1034F6000E94AF2F0E9408310E942F310E94323164
:103506000F010E94452F0E947C2F0E9435311150D9
:10351600CCCF3F5F89CFE8E0F6E00E9480310E9481
:10352600433129F0A0911E03A43109F040C00E9446
:103536004A311A3020F40E94230A1F5FFACFE3941F
:10354600EBE3EE1508F4EE2430E0313170F5AE2DE4
:103556000E94DA2E0E948C2F0E94FF300E94223198
:10356600AE2D0E94E02E0E948C2F0E94FF300E94FA
:103576002831033020F40E94230A0F5FFACF10E1AE
:10358600123088F00E94F52E0E9408310E942F31D9
:103596000E9432310F010E94452F0E947C2F0E940B
:1035A60035311150EDCF3F5FD0CFE1E0EDBB0E944A
:1035B600553121F0A0911E03A531E9F50E944A314B
:1035C6001A3020F40E94230A1F5FFACFE0E0EE15BE
:1035D60010F4EA9402C0EBE3EE2E30E03F3048F5FB
:1035E600AE2D0E94DA2E0E94FA30DF010E94FD2ED7
:1035F6000E945A31AE2D0E94E02E0E94FA30DF0161
:103606000E94FD2E0E948631033020F40E94230A78
:103616000F5FFACF10E01F3050F40E94F52E0E9483
:103626006B310E9432310E948D311F5FF4CF3F5FB4
:10363600D5CFE1E0EDBB0E94763129F0A0911E03C3
:10364600A63109F0EBC40E947B31E1E0EA93EA92ED
:103656000E94BE09329903C00E94230AFBCF30E0C4
:10366600313110F00C94A51B0E943A310E94FF30B4
:103676000E94D82F0E9416310E94FF300E94E12F2F
:1036860068E176E00E94FD2E0E94FF300E94023122
:1036960068E775E00E94FD2E0E94FF300E941031FF
:1036A6000E943D310E94FF300E94BB2F0E948C2F4A
:1036B6000E94FF300E942231AD2D0E94E02E0E9412
:1036C6008C2F0E94FF300E942831033020F40E9484
:1036D600230A0F5FFACF10E1123090F10E94F52E07
:1036E6000E94C82F0E94CB2F0E94CF2F0F010E944D
:1036F6001F2F0E947C2F0E94D22F0E9408310E9409
:103706000D310E9440310F010E94332F0E947C2F01
:103716000E94AA2F0F010E943C2F0E947C2F0E941C
:10372600AF2F0E9408310E942F310E9432310F01C3
:103736000E94452F0E947C2F0E9435311150CCCF1C
:103746003F5F8ECFE8E1F6E00E9480310E94433170
:1037560029F0A0911E03A43109F040C00E944A310D
:103766001A3020F40E94230A1F5FFACFD394EBE3AA
:10377600ED1508F4DD2430E0313170F5AD2D0E94F1
:10378600DA2E0E948C2F0E94FF300E942231AD2D2E
:103796000E94E02E0E948C2F0E94FF300E9428314A
:1037A600033020F40E94230A0F5FFACF10E1123093
:1037B60088F00E94F52E0E9408310E942F310E9447
:1037C60032310F010E94452F0E947C2F0E94353115
:1037D6001150EDCF3F5FD0CFE1E0EDBB0E945531F8
:1037E60021F0A0911E03A531E9F50E944A311A3055
:1037F60020F40E94230A1F5FFACFE0E0ED1510F4D3
:10380600DA9402C0EBE3DE2E30E03F3048F5AD2D12
:103816000E94DA2E0E94FA30DF010E94FD2E0E94DD
:103826005A31AD2D0E94E02E0E94FA30DF010E942F
:10383600FD2E0E948631033020F40E94230A0F5F7A
:10384600FACF10E01F3050F40E94F52E0E946B3123
:103856000E9432310E948D311F5FF4CF3F5FD5CF7A
:10386600E1E0EDBB0E94763129F0A0911E03A6315E
:1038760009F0D3C30E947B31E0E0EA93DA920E941A
:10388600BE09329903C00E94230AFBCF30E03131D2
:1038960010F00C94BD1C0E9498310E94FF300E94CB
:1038A600D82F0E943A310E94FF300E94E12F68E231
:1038B60076E00E94FD2E0E94FF300E94023168E7EA
:1038C60075E00E94FD2E0E94FF300E9410310E947A
:1038D6003D310E94FF300E9419310E94E4300E945F
:1038E6008C2F0E94FF300E9422310E94E7300E94F6
:1038F6008C2F0E94FF300E942831033020F40E9452
:10390600230A0F5FFACF10E1123090F10E94F52ED4
:103916000E94C82F0E94CB2F0E94CF2F0F010E941A
:103926001F2F0E947C2F0E94D22F0E9408310E94D6
:103936000D310E9440310F010E94332F0E947C2FCF
:103946000E94AA2F0F010E943C2F0E947C2F0E94EA
:10395600AF2F0E9408310E942F310E9432310F0191
:103966000E94452F0E947C2F0E9435311150CCCFEA
:103976003F5F8DCFE8E2F6E00E9480310E9443313E
:1039860029F0A0911E03A43109F045C00E944A31D6
:103996001A3020F40E94230A1F5FFACFE091010338
:1039A600EF5FE0930103A0910103A03218F0E0E07D
:1039B600E093010330E0313160F50E94E4300E946B
:1039C6008C2F0E94FF300E9422310E94E7300E9415
:1039D6008C2F0E94FF300E942831033020F40E9471
:1039E600230A0F5FFACF10E1123088F00E94F52EFD
:1039F6000E9408310E942F310E9432310F010E942D
:103A0600452F0E947C2F0E9435311150EDCF3F5F2C
:103A1600D2CFE1E0EDBB0E94553129F0A0911E0303
:103A2600A53109F03FC00E944A311A3020F40E94A5
:103A3600230A1F5FFACFA0910103A13020F0E09185
:103A46000103E15001C0EFE1E093010330E03F30B4
:103A560038F50E94E4300E94FA30DF010E94FD2E04
:103A66000E945A310E94E7300E94FA30DF010E941C
:103A7600FD2E0E948631033020F40E94230A0F5F38
:103A8600FACF10E01F3050F40E94F52E0E946B31E1
:103A96000E9432310E948D311F5FF4CF3F5FD7CF36
:103AA600E1E0EDBB0E94763129F0A0911E03A6311C
:103AB60009F0B2C20E947B31E4E0EA93E09101038F
:103AC600EA930E94BE09329903C00E94230AFBCFE3
:103AD60030E0313110F00C94EA1D0E941F310E9433
:103AE600FF300E94D82F68E674E00E94FD2E0E94E7
:103AF600FF300E94E12F68E376E00E94FD2E0E94CF
:103B0600FF300E9402310E9498310E94FF300E94CD
:103B160010310E943A310E94FF300E9419310E94F2
:103B26003D310E94FF300E9422310E94EA300E94FD
:103B36008C2F0E94FF300E949B310E948C2F0E9486
:103B4600FF300E949C2F033020F40E94230A0F5F4F
:103B5600FACF10E11230C8F10E94F52E0E94C82F4C
:103B66000E94CB2F0E94CF2F0F010E941F2F0E9471
:103B76007C2F0E94D22F0E9408310E940D310E9494
:103B860040310F010E94332F0E947C2F0E94AA2FE2
:103B96000F010E943C2F0E947C2F0E94AF2F0E9493
:103BA60008310E942F310E9432310F010E94452FA9
:103BB6000E947C2F0E94822F0F010E944E2F0E948E
:103BC6007C2F0E94872F1150C5CF3F5F82CFE8E33D
:103BD600F6E00E9480310E94433129F0A0911E0335
:103BE600A43109F044C00E944A311A3020F40E94E0
:103BF600230A1F5FFACFE0910203EF5FE09302030F
:103C0600A0910203AD3018F0E0E0E093020330E04B
:103C1600313158F50E94EA300E948C2F0E94FF3005
:103C26000E949B310E948C2F0E94FF300E949C2F85
:103C3600033020F40E94230A0F5FFACF10E11230FE
:103C460090F00E94F52E0F010E94452F0E947C2FB6
:103C56000E94822F0F010E944E2F0E947C2F0E94ED
:103C6600872F1150ECCF3F5FD3CFE1E0EDBB0E9431
:103C7600553121F0A0911E03A531E9F50E944A3184
:103C86001A3020F40E94230A1F5FFACFA091020384
:103C9600A13020F0E0910203E15001C0ECE0E09396
:103CA600020330E03F3028F50E94EA300E94FA30E5
:103CB600DF010E94FD2E0E94A1310E94ED300E947C
:103CC600FA30DF010E94FD2E0E94A731033020F456
:103CD6000E94230A0F5FFACF10E01F3040F40E94C3
:103CE600F52E0E94AE310E94B9311F5FF6CF3F5FBD
:103CF600D9CFE1E0EDBB0E94763129F0A0911E03F9
:103D0600A63109F088C10E947B31E5E0EA93E09193
:103D16000203EA930E94BE09329903C00E94230A55
:103D2600FBCF30E0313110F00C94181F0E9498310F
:103D36000E94FF300E94D82F68E476E00E94FD2E94
:103D46000E94FF300E94E12F68EB74E00E94FD2E76
:103D56000E94FF300E9402310E943D310E94FF30D6
:103D66000E94103168E870E00E94FD2E0E94FF302C
:103D76000E9419310E94FD2E0E94FF30E859FF4F24
:103D8600049000923F030E94D52F0E948C2F0E9420
:103D9600FF300E94C4310E948C2F0E94FF300E9487
:103DA6009C2F033020F40E94230A0F5FFACF10E104
:103DB6001230C8F10E94F52E0E94C82F0E94CB2F08
:103DC6000E94CF2F0F010E941F2F0E947C2F0E945E
:103DD600D22F0E9408310E940D310E9440310F01FE
:103DE6000E94332F0E947C2F0E94AA2F0F010E944F
:103DF6003C2F0E947C2F0E94AF2F0E9408310E9408
:103E06002F310E9432310F010E94452F0E947C2FD4
:103E16000E94822F0F010E944E2F0E947C2F0E942B
:103E2600872F1150C5CF3F5F7DCFE8E4F6E00490C1
:103E360000923B03E1E0EDBB0E94433129F0A091E3
:103E46001E03A43109F044C00E944A311A3020F4FE
:103E56000E94230A1F5FFACFE0910303EF5FE0930E
:103E66000303A0910303A43618F0E1E1E0930303F2
:103E760030E0313158F50E94D52F0E948C2F0E94D8
:103E8600FF300E94C4310E948C2F0E94FF300E9496
:103E96009C2F033020F40E94230A0F5FFACF10E113
:103EA600123090F00E94F52E0F010E94452F0E94BD
:103EB6007C2F0E94822F0F010E944E2F0E947C2F82
:103EC6000E94872F1150ECCF3F5FD3CFE1E0EDBBCF
:103ED6000E94553129F0A0911E03A53109F041C079
:103EE6000E944A311A3020F40E94230A1F5FFACF3B
:103EF600A0910303A23120F0E0910303E15005C035
:103F0600A0910303A23118F4E3E6E093030330E043
:103F16003F3028F50E94D52F0E94FA30DF010E941B
:103F2600FD2E0E94A1310E94DE2F0E94FA30DF0191
:103F36000E94FD2E0E94A731033020F40E94230A1E
:103F46000F5FFACF10E01F3040F40E94F52E0E945A
:103F5600AE310E94B9311F5FF6CF3F5FD9CFE1E0A6
:103F6600EDBB0E94763129F0A0911E03A63109F01F
:103F760051C00E947B31E6E0EA93E0910303EA93A5
:103F86000E94BE09329903C00E94230AFBCFA0916A
:103F96000203A33090F0609101037727E0910203BA
:103FA600A2E0EA9FF0016E0F7F1F0E94CA31319690
:103FB6000E94CE310E94E03112C0A0910103BB27BE
:103FC6000E94CA313C960E945630BF010E94CA31F7
:103FD6003D960E94CE3131970E94E0313197DF0144
:103FE600E4E0F0E00E94CF33DB01AE0FBF1FE7E055
:103FF600F0E00E94D733E0930003EF5FE093000305
:10400600E3E0EA93E0910003EA930E94BE09E1E04F
:10401600EDBB06C011CFDFCDB1CC98CB80CA5DC950
:104026000E940E3424960895E3E0EA930E94D9098B
:10403600E23051F40E94E931E7E0E0930803E0E062
:10404600E0930903E8E051C0E33051F40E94E931FE
:10405600E1E0E0930803E0E0E0930903EDE145C009
:10406600E43051F40E94E931E3E1E0930803E4E12E
:10407600E0930903EDE139C0E53051F40E94E931DE
:10408600EDE0E0930803E2E2E0930903ECE02DC0E3
:10409600E63051F40E94E931E2E1E0930803E4E2FC
:1040A600E0930903E4E121C0E73051F40E94E931CD
:1040B600E1E0E0930803E0E3E0930903E8E115C0DB
:1040C600E130A9F4E2E0E0930403E7E0E0930503BE
:1040D600EBE1E0930603EDE0E0930703E7E0E0930E
:1040E6000803E8E2E0930903E3E1E0930A03089595
:1040F6000E940534E0E0EDBBE093200363D194DF3A
:104106000E948D090E94240FE1E0EDBB30E03F30B4
:1041160040F500E0033020F40E94230A0F5FFACF37
:1041260010E01F30E0F40E94F52E0F010E948B3341
:10413600E45CFC4F0E94F6310E9440310F010E9460
:104146008B33E35CFC4F0E94F6310E94AA2F0E943B
:1041560060310E946B310E9450311F5FE2CF3F5F9A
:10416600D6CF30E0313158F500E0033020F40E941C
:10417600230A0F5FFACF10E11230F8F00E94F52EF5
:104186000E94C82F0E94CB2F0E94CF2F0F010E94A2
:104196001F2F0E947C2F0E94D22F0F010E94452FB5
:1041A6000E947C2F0E94822F0F010E944E2F0E9498
:1041B6007C2F0E94872F1150DFCF3F5FD3CFE0E0E7
:1041C600E0932003E0912103A0910103EA1789F40B
:1041D600E0912203A0910203EA1759F4E0E0ED15FD
:1041E60040F4AE2DBB27E5E0F0E00E94D7333097D0
:1041F60009F014C040E050E04C3DE0E05E0768F492
:104206000E94C515A0912003A13021F4E0E0E093BF
:10421600200317C04F5F5F4FEFCF13C040E050E061
:10422600483AE1E05E0768F40E941D13A09120035E
:10423600A13021F4E0E0E093200303C04F5F5F4F1D
:10424600EFCF552466243324442430E03F3010F069
:104256000C9472210E943D310E94922F0E940231DD
:10426600AE2D0E94DA2E0E948C2F0E94922F0E9461
:10427600B42F0E948C2F0E94922F0E9419310E9407
:104286003D310E94922F0E94223100E0033020F43B
:104296000E94230A0F5FFACF10E11230F0F00E945D
:1042A600F52E0E9408310E940D310E9440310F0107
:1042B6000E94332F0E947C2F0E94AA2F0F010E947A
:1042C6003C2F0E947C2F0E94AF2F0E9408310E9433
:1042D6002F310E9450311150E0CF3F5FB7CF0E947F
:1042E600FC3130E03F3010F00C94CD21A92D0E9416
:1042F600DA2E0E94FA30DF010E94FD2EEA0FFB1F24
:1043060004900092B203A92D0E94E02E0E94FA307A
:10431600DF010E94FD2EEA0FFB1F04900092B303FB
:10432600AD2D0E94DA2E0E94FA30DF010E94FD2E8A
:104336000E94A131AD2D0E94E02E0E94FA30DF01CD
:104346000E94FD2E0E94A731033020F40E94230A0A
:104356000F5FFACF10E01F30D8F40E94F52E0F0140
:104366000E94052FDF01F00131960E94052F0E9461
:10437600CF2F0F010E948B33E55CFC4F0E94F63174
:104386000E94D22F0E94AE310E94B9311F5FE3CF47
:104396003F5FA8CF0E94FC310E940C3426960895F8
:1043A6000E94FC31DD2031F40E940232EE2011F42D
:1043B6000E94083208950E94FC310E9402320E9437
:1043C600083208950E94FC310E9402320E9408328F
:1043D600E4E0EA930E94D909E0930103E3E0EA935B
:1043E6000E94D909E0930003E5E0EA930E94D90907
:1043F600E0930203E6E0EA930E94D909E0930303FF
:1044060008950E945E2F30E0313110F00C949C220A
:10441600EB850E94DE30BF010E94FD2E0E94FF3018
:104426000E94D82FEA850E94DE30BF010E94FD2E31
:104436000E94FF300E94E12FE9850E94DE30BF0115
:104446000E94FD2E0E94FF300E9402310E945B30C6
:104456000E940E320E94FF300E941031EF810E94AE
:10446600DE30BF010E94FD2E0E94FF300E941931EE
:10447600EE810E94DE30BF010E94FD2E0E94FF30B9
:104486000E942231ED810E94DE30BF010E94FD2E86
:104496000E94FF300E9414320E94DE30BF010E944B
:1044A600FD2E0E94FF300E949C2F033020F40E94B4
:1044B600230A0F5FFACF10E11230C8F10E94F52EE1
:1044C6000E94C82F0E94CB2F0E94CF2F0F010E945F
:1044D6001F2F0E947C2F0E94D22F0E9408310E941B
:1044E6000D310E9440310F010E94332F0E947C2F14
:1044F6000E94AA2F0F010E943C2F0E947C2F0E942F
:10450600AF2F0E9408310E942F310E9432310F01D5
:104516000E94452F0E947C2F0E94822F0F010E942D
:104526004E2F0E947C2F0E94872F1150C5CF3F5FD0
:104536006BCF0AC10E945E2F30E0313110F00C942F
:104546002623EB850E94DE30BF010E94FD2E0E94CD
:10455600FF300E94D82FEA850E94DE30BF010E94FC
:10456600FD2E0E94FF300E94E12FE9850E94DE3079
:10457600BF010E94FD2E0E94FF300E9402310E9460
:104586005B300E940E320E94FF300E9410310E9462
:104596001B320E94FF300E9419310E941E320E9477
:1045A600FF300E9422310E9421320E94FF300E9479
:1045B60014320E9424320E94FF300E949C2F033046
:1045C60020F40E94230A0F5FFACF10E11230C8F1DF
:1045D6000E94F52E0E94C82F0E94CB2F0E94CF2F3B
:1045E6000F010E941F2F0E947C2F0E94D22F0E9433
:1045F60008310E940D310E9440310F010E94332F75
:104606000E947C2F0E94AA2F0F010E943C2F0E941D
:104616007C2F0E94AF2F0E9408310E942F310E94EA
:1046260032310F010E94452F0E947C2F0E94822F5B
:104636000F010E944E2F0E947C2F0E94872F11503F
:10464600C5CF3F5F7ACF80C00E945E2F30E0313108
:1046560010F00C94A723EB850E9424320E94FF30B1
:104666000E94D82FEA850E9424320E94FF300E94C1
:10467600E12FE9850E9424320E94FF300E94023118
:104686000E945B300E948C2F0E94FF300E941031E6
:104696000E941B320E94FF300E9419310E941E3276
:1046A6000E94FF300E9422310E9421320E94FF3078
:1046B6000E9414320E9424320E94FF300E949C2FD6
:1046C600033020F40E94230A0F5FFACF10E1123064
:1046D600C8F10E94F52E0E94C82F0E94CB2F0E947F
:1046E600CF2F0F010E941F2F0E947C2F0E94D22FD6
:1046F6000E9408310E940D310E9440310F010E9434
:10470600332F0E947C2F0E94AA2F0F010E943C2F5C
:104716000E947C2F0E94AF2F0E9408310E942F31E9
:104726000E9432310F010E94452F0E947C2F0E9469
:10473600822F0F010E944E2F0E947C2F0E94872FEE
:104746001150C5CF3F5F83CFE8E2F6E004900092B8
:104756003B03E1E0EDBB0E940E342C960895E8E1A0
:10476600EA930E94EB09EB3030F0E8E1EA93E3E0EC
:10477600EA930E94D009E8E1EA930E94EB09AE2E83
:10478600EA2D0E94F82E19F4E5E0F0E03EC0E23092
:10479600A0E0FA0719F4EAE0F0E037C0E330A0E061
:1047A600FA0719F4EEE1F0E030C0E430A0E0FA07D1
:1047B60019F4E0E5F0E029C0E530A0E0FA0719F4C5
:1047C600E6E9F0E022C0E630A0E0FA0719F4ECE2F0
:1047D600F1E01BC0E730A0E0FA0719F4E0E9F1E0E8
:1047E60014C0E830A0E0FA0719F4E8E5F2E00DC0DD
:1047F600E930A0E0FA0719F4E0E2F3E006C0EA3097
:10480600A0E0FA0721F4E8EEF3E0BE2ECF2E0895DD
:104816001A93EDE2EA93ECE2EA93EBE1EA93E2E142
:10482600EA93EBE0EA93AA2D0E94DA2EEA93AA2DE8
:104836000E94E02E0E9426320E94433121F0A09170
:104846001E03A43139F50E947B31309903C00E94C2
:10485600230AFBCFA394EAE0EA1510F4E1E0AE2EBA
:104866000E942B321131A0F40E94F52E0E943432A0
:104876000E94122F0E94182F0E94452FBF01AA2DB9
:104886000E94E02E0E94122F0E94572F1F5FEACF30
:10489600E1E0EDBB0E94553121F0A0911E03A53148
:1048A60031F50E947B31319903C00E94230AFBCF68
:1048B600AA94AA2011F4EAE0AE2E0E942B321131FE
:1048C600A0F40E94F52E0E9434320E94122F0E94FC
:1048D600182F0E94452FBF01AA2D0E94E02E0E948C
:1048E600122F0E94572F1F5FEACFE1E0EDBB0E9417
:1048F600763121F0A0911E03A63149F4E0E0E09361
:104906001E03329903C00E94230AFBCF01C094CF35
:1049160019910895E0E0E0931703E09318030E94CD
:104926003C32E1E20E944232E2E20E944232E3E29B
:104936000E9442320E9447320E945032E4E1EA93DA
:10494600EFE0EA935EDD0E94543211F40C94F624F3
:104956000E945C32E4E10E946132E3E0EA93EEE019
:10496600EA93E6E1EA93EDE0EA934BDD0E945432E6
:10497600C9F10E945C32E5E10E9461320E94503228
:10498600EEE0EA93EAE0EA933CDD0E94543219F045
:104996000E94683209F425C00E945C32E6E10E945A
:1049A6006132EDE1EA93EEE0EA93E5E0EA93EA9319
:1049B60028DD0E94543259F00E94683241F0E5E148
:1049C600EA930E94D909A0911703EA1709F408C0CF
:1049D600E7E1EA93E0911703EA930E94D00904C045
:1049E600E8CFD3CFC3CFAFCF0895E9E10E947032AD
:1049F60018F0E9E10E944232EAE10E94703218F0B2
:104A0600EAE10E944232EBE10E94703218F0EBE1DB
:104A16000E944232ECE10E94753218F0ECE10E94ED
:104A26004232EDE1EA930E94EB09E03218F0EDE143
:104A36000E944232EEE1EA930E94EB09ED3018F053
:104A4600EEE10E944232EFE10E94753218F0EFE18A
:104A56000E944232E0E20E94753210F00E943C321F
:104A6600E1E20E94753230F0E1E2EA93E1E0EA9396
:104A76000E94D009E2E20E94753230F0E2E2EA9347
:104A8600E1E0EA930E94D009E9E1EA930E94EB098A
:104A9600E0931103EAE1EA930E94EB09E093120323
:104AA600EBE1EA930E94EB09E0931403ECE1EA934D
:104AB6000E94EB09E0931503EDE1EA930E94EB09EE
:104AC600E0932103EEE1EA930E94EB09E0932203CF
:104AD600EFE1EA930E94EB09E0931303E0E2EA9325
:104AE6000E94EB09E0932403E1E2EA930E94EB09BA
:104AF600E0930E03E2E2EA930E94EB09E0931F03C0
:104B060008950E940734E6E0EA93E8E0EA93EBE2D0
:104B16000E947A320E948032EA930E9483320E9477
:104B26002632E8E7F4E0049000923B03E8EAF6E078
:104B3600049000923C030E94433129F0A0911E0389
:104B4600A43109F044C00E947B31309903C00E9411
:104B5600230AFBCFE0911103EF5FE0931103A091CD
:104B66001103A83118F0E0E0E093110330E0313191
:104B760060F50E9480320E948C2F0E94FF300E94B6
:104B860022310E9483320E948C2F0E94FF300E94A5
:104B96002831033020F40E94230A0F5FFACF10E178
:104BA600123088F00E94F52E0E9408310E942F31A3
:104BB6000E9432310F010E94452F0E947C2F0E94D5
:104BC60035311150EDCF3F5FD2CFE1E0EDBB0E9412
:104BD600553121F0A0911E03A531F1F50E947B31DC
:104BE600319903C00E94230AFBCFA0911103A13083
:104BF60020F0E0911103E15001C0E7E1E0931103D9
:104C060030E03F3038F50E9480320E94FA30DF01F2
:104C16000E94FD2E0E945A310E9483320E94FA3071
:104C2600DF010E94FD2E0E948631033020F40E948F
:104C3600230A0F5FFACF10E01F3050F40E94F52EC2
:104C46000E946B310E9432310E948D311F5FF4CF7A
:104C56003F5FD7CFE1E0EDBB0E94763129F0A0910E
:104C66001E03A63109F0D0C0E0E0E0931E033099A0
:104C760003C00E94230AFBCFEFE0EA93E7E0EA9342
:104C8600E1E2EA93E3E1EA93EBE0EA930E948632FB
:104C9600EA930E9489320E942632EFEFE0933B03AB
:104CA600E9EFE0933C030E94433129F0A0911E03F3
:104CB600A43109F044C00E947B31309903C00E94A0
:104CC600230AFBCFE0911203EF5FE0931203A0915A
:104CD6001203AC3318F0E0E0E093120330E0313118
:104CE60060F50E9486320E948C2F0E94FF300E943F
:104CF60022310E9489320E948C2F0E94FF300E942E
:104D06002831033020F40E94230A0F5FFACF10E106
:104D1600123088F00E94F52E0E9408310E942F3131
:104D26000E9432310F010E94452F0E947C2F0E9463
:104D360035311150EDCF3F5FD2CFE1E0EDBB0E94A0
:104D4600553121F0A0911E03A531F1F50E947B316A
:104D5600319903C00E94230AFBCFA0911203A13010
:104D660020F0E0911203E15001C0EBE3E09312035F
:104D760030E03F3038F50E9486320E94FA30DF017B
:104D86000E94FD2E0E945A310E9489320E94FA30FA
:104D9600DF010E94FD2E0E948631033020F40E941E
:104DA600230A0F5FFACF10E01F3050F40E94F52E51
:104DB6000E946B310E9432310E948D311F5FF4CF09
:104DC6003F5FD7CFE1E0EDBB0E94763121F0A091A5
:104DD6001E03A631C1F40E947B31309903C00E94A4
:104DE600230AFBCFE9E1EA93E0911103EA930E94DB
:104DF600D009EAE1EA93E0911203EA930E94D0090E
:104E0600E1E0EDBBC3C24FCF96CEE0911103E915A9
:104E160041F4E0911203EE1521F4A0911303A130A1
:104E260009F012C0E0912303E03039F40E947C08B7
:104E36000E948C320E947C0806C00E94C7080E940D
:104E46008C320E94C708B7DA08950E9407340E9480
:104E560092320E9497320E949B320E94A3320E9495
:104E660026320E94A7320E94433129F0A0911E03E8
:104E7600A43109F05BC00E947B31309903C00E94C7
:104E8600230AFBCFA0911403AB33C8F5E0911403BA
:104E9600EF5FE093140330E0313180F5A091140305
:104EA6000E94DA2E0E948C2F0E94FF300E9422312F
:104EB600A09114030E94E02E0E948C2F0E94FF30C6
:104EC6000E942831033020F40E94230A0F5FFACF94
:104ED60010E1123088F00E94F52E0E9408310E94DF
:104EE6002F310E9432310F010E94452F0E947C2FE4
:104EF6000E9435311150EDCF3F5FCECF15C0E0E0B7
:104F0600E09314030E9497320E94B032E093150397
:104F16000E9492320E9497320E949B320E94A332D4
:104F26000E9426320E94A732E1E0EDBB0E94553175
:104F360029F0A0911E03A53109F051C00E947B31D2
:104F4600319903C00E94230AFBCFA0911403A1301C
:104F560078F1E0911403E150E093140330E03F3020
:104F660030F5A091140323D70E94FA30DF0142D70F
:104F76000E945A31A091140320D70E94FA30DF0113
:104F860039D70E948631033020F40E94230A0F5F2E
:104F9600FACF10E01F3048F425D70E946B310E94EB
:104FA60032310E948D311F5FF5CF3F5FD8CF15C0DC
:104FB600EBE3E09314030E9497320E94B032E09331
:104FC60015030E9492320E9497320E949B320E94E1
:104FD600A3320E9426320E94A732E1E0EDBB0E9476
:104FE600763121F0A0911E03A631B1F40E947B31E7
:104FF600ECE1EA93E0911503EA930E94D009EBE114
:10500600EA93E0911403EA930E94D009329903C00F
:105016000E94230AFBCFBAC126CFE3E0E91531F49B
:10502600E4E0EE1519F4E5E0ED1509F037C0E0917E
:105036001503E03081F40E94B332DC9744F00E94FD
:10504600B332EBE3F0E0D9D6DE2EE39403C0E09171
:105056001403DE0E19C0A0911503A130A9F4A09186
:105066001403DA1650F4BB27ED2DF0E0C6D6ABE3F9
:10507600B0E0C3D6DE2EEA9407C0AD2DBB27E09183
:105086001403F0E0BAD6DE2EE0E0EA93DA920E944C
:10509600BE09E1E0EA93EA920E94BE0908950E94E1
:1050A6000734EDE0EA93E6E0EA93E3E2EA93E8E127
:1050B600EA93EBE0EA930E94BB32EA930E94BE3287
:1050C6000E942632E8E2F6E0049000923C03EFEFFD
:1050D600E0933B030E94433129F0A0911E03A431C3
:1050E60009F03FC00E947B31309903C00E94230A19
:1050F600FBCFE0912103EF5FE0932103A091210311
:10510600A03218F0E0E0E093210330E0313138F5C9
:105116000E94BB32FED60E94FF300E9422310E94BE
:10512600BE32F7D60E94FF300E942831033020F4A9
:105136000E94230A0F5FFACF10E1123070F052D6A8
:105146000E9408310E942F310E9432310F019AD6F7
:10515600D0D60E9435311150F0CF3F5FD7CFE1E076
:10516600EDBB0E94553121F0A0911E03A531D9F562
:105176000E947B31319903C00E94230AFBCFA09184
:105186002103A13020F0E0912103E15001C0EFE1BD
:10519600E093210330E03F3020F50E94BB320E94AD
:1051A600FA30DF0127D60E945A310E94BE320E9491
:1051B600FA30DF011FD60E948631033020F40E94A8
:1051C600230A0F5FFACF10E01F3048F40BD60E9477
:1051D6006B310E9432310E948D311F5FF5CF3F5FE8
:1051E600DACFE1E0EDBB0E94763129F0A0911E03F3
:1051F600A63109F0CAC0E0E0E0931E03309903C06F
:105206000E94230AFBCFE3E1EA93E7E0EA93E4E2B4
:10521600EA93E6E0EA93EBE0EA930E94C132EA936E
:105226000E94C4320E942632EFEFE0933B03E8E38C
:10523600F6E0049000923C030E94433129F0A091CD
:105246001E03A43109F03FC00E947B31309903C090
:105256000E94230AFBCFE0912203EF5FE093220333
:10526600A0912203AD3018F0E0E0E093220330E095
:10527600313138F50E94C1324CD60E94FF300E946F
:1052860022310E94C43245D60E94FF300E94283146
:10529600033020F40E94230A0F5FFACF10E1123088
:1052A60070F0A0D50E9408310E942F310E94323141
:1052B6000F01E8D51ED60E9435311150F0CF3F5F61
:1052C600D7CFE1E0EDBB0E94553121F0A0911E033E
:1052D600A531D9F50E947B31319903C00E94230A7A
:1052E600FBCFA0912203A13020F0E0912203E150F0
:1052F60001C0ECE0E093220330E03F3020F50E944D
:10530600C1320E94FA30DF0175D50E945A310E94DF
:10531600C4320E94FA30DF016DD50E948631033017
:1053260020F40E94230A0F5FFACF10E01F3048F4E2
:1053360059D50E946B310E9432310E948D311F5F18
:10534600F5CF3F5FDACFE1E0EDBB0E94763121F089
:10535600A0911E03A631C1F40E947B31309903C08F
:105366000E94230AFBCFEDE1EA93E0912103EA9341
:105376000E94D009EEE1EA93E0912203EA930E94AB
:10538600D009E1E0EDBB02C057CFA4CE0E940E3497
:1053960024960895E1E0EA93EBE1EA93E3E10E94C3
:1053A6007A320E94C732A0911303A13019F40E94E9
:1053B600C10A02C00E940B0B63D749F00E94553107
:1053C60031F0A0911E03A43111F0A531D1F4E0E033
:1053D600E0931E030E94D33211F064D719F40E94A1
:1053E600230AF8CFE09113030E94D832E093130307
:1053F600A0911303A13019F40E94C10A02C00E94B1
:105406000B0B0E94763129F0A0911E03A63109F0FC
:1054160000C1E0E0E0931E03329903C00E94230A14
:10542600FBCFE2E1EA93EBE1EA93EDE00E947A3208
:105436000E94C732A0912403A13019F40E94C10A28
:1054460002C00E940B0B1CD741F02CD731F0A09163
:105456001E03A43111F0A531D1F4E0E0E0931E0360
:105466000E94D33211F01ED719F40E94230AF8CFF6
:10547600E09124030E94D832E0932403A0912403F0
:10548600A13019F40E94C10A02C00E940B0B2BD74F
:1054960029F0A0911E03A63109F0BAC0E0E0E0931E
:1054A6001E03329903C00E94230AFBCFE0E0EA9371
:1054B600E4E1EA93E3E1EA93EEE0EA93EBE0EA93D0
:1054C600EA93EA93EA9336D8EFEFE0933B03E0934F
:1054D6003A03A0910E03A13019F40E94C10A02C03A
:1054E6000E940B0BCDD641F0DDD631F0A0911E0304
:1054F600A43111F0A531D1F4E0E0E0931E030E943F
:10550600D33211F0CFD619F40E94230AF8CFE091D6
:105516000E030E94D832E0930E03A0910E03A13031
:1055260019F40E94C10A02C00E940B0BDCD629F0B6
:10553600A0911E03A63109F06AC0E0E0E0931E03C5
:10554600329903C00E94230AFBCFE4E0EA93EBE121
:10555600EA93E5E00E947A320E94C732A0911F03C7
:10556600A13019F40E94C10A02C00E940B0B88D612
:1055760041F098D631F0A0911E03A43111F0A53167
:10558600D1F4E0E0E0931E030E94D33211F08AD6F4
:1055960019F40E94230AF8CFE0911F030E94D83223
:1055A600E0931F03A0911F03A13019F40E94C10AC2
:1055B60002C00E940B0B97D621F0A0911E03A631C4
:1055C60029F5E0E0E0931E03329903C00E94230A06
:1055D600FBCFEFE1EA93E0911303EA930E94D0092F
:1055E600E0E2EA93E0912403EA930E94D009E1E223
:1055F600EA93E0910E03EA930E94D009E2E2EA936D
:10560600E0911F03EA930E94D0090895B0CF6ACFB4
:105616001ACFD2CEA0911E03A731E9F4E0E0E093C1
:105626001E03A0911E03A731A9F462D6A92DBFD3EC
:10563600EA93A92DC2D30E94DA32EA93AE2DBDD3E6
:105646000E94DF32EA93AD2DB8D30E94E432E1E046
:10565600EDBB0895E6CF08951A9345D629F0A0919B
:105666001E03A63109F0BEC1E0E0E0931E033299A5
:1056760003C00E94230AFBCF07D7E3E1EA93E7E0E2
:10568600EA93EBE2EA93E8E0EA930E94042210E050
:10569600183588F40E943C10A0912003A13021F413
:1056A600E0E0E093200307C0FDD511F01CD609F415
:1056B60002C01F5FEDCF0E94EB3221F0A0911E03C6
:1056C600A63159F4E0E0E0931E03329903C00E942C
:1056D600230AFBCF0E94F21876C1E4D529F0A091E7
:1056E6001E03A53109F06EC1E0E0E0931E03319977
:1056F60003C00E94230AFBCFC7D6EDE2EA93EEE091
:10570600EA93EDE1EA93E2E1EA930E94042210E0D3
:10571600163488F40E94D710A0912003A13021F4FA
:10572600E0E0E093200307C0BDD511F0DCD509F415
:1057360002C01F5FEDCF4CD721F0A0911E03A6310A
:1057460051F4E0E0E0931E03329903C00E94230A5D
:10575600FBCF5ED838C1A6D529F0A0911E03A5318E
:1057660009F02FC1E0E0E0931E03319903C00E94C7
:10577600230AFBCF89D6E1E0EA93E4E2EA93EEE07E
:10578600EA93EDE1EA930E94042210E01D3488F4C6
:105796000E946311A0912003A13021F4E0E0E09380
:1057A600200307C07FD511F09ED509F402C01F5F04
:1057B600EDCF0ED721F0A0911E03A63151F4E0E003
:1057C600E0931E039ED9329903C00E94230AFBCFA1
:1057D600FAC068D529F0A0911E03A53109F0F0C0E2
:1057E600E0E0E0931E03319903C00E94230AFBCF39
:1057F6004BD6E1E0EA93EEE2EA93EDE1EA93E6E0E6
:10580600EA930E940422E8EDF6E0049000923E033B
:105816000E94230A10E0103488F40E94F211A0912D
:105826002003A13021F4E0E0E093200307C03AD53D
:1058360011F059D509F402C01F5FEDCFC9D621F08A
:10584600A0911E03A63151F4E0E0E0931E033299C5
:1058560003C00E94230AFBCFF8DAB5C023D529F08E
:10586600A0911E03A53109F0AAC0E0E0E0931E0353
:10587600319903C00E94230AFBCF06D6EBE0EA93D8
:10588600EFE2EA93EDE0EA93E7E0EA930E9404226E
:10589600E8EEF6E0049000923F030E94230A23D527
:1058A60021F0A0911E03A63181F4E0E0E0931E03EF
:1058B600329903C00E94230AFBCFE1E0E09319036B
:1058C60029D8E0E0E09319037EC0ECD429F0A0913A
:1058D6001E03A53109F072C0E0E0E0931E03329981
:1058E60003C00E94230AFBCFCFD5EDE1EA93E2E1A4
:1058F600EA93EDE0EA93EDE170D60E94230AF3D431
:1059060021F0A0911E03A63151F4E0E0E0931E03BE
:10591600329903C00E94230AFBCFC1DB54C0C2D414
:1059260029F0A0911E03A53109F047C0E0E0E093FD
:105936001E03319903C00E94230AFBCFA5D5E3E1DC
:10594600EA93E1E1EA93E1E3EA93EDE046D60E94C9
:10595600230A10E0123688F40E947812A0912003E0
:10596600A13021F4E0E0E093200307C09BD411F0BE
:10597600BAD409F402C01F5FEDCF2AD621F0A09158
:105986001E03A63151F4E0E0E0931E03329903C0F2
:105996000E94230AFBCFFEDC16C084D421F0A0911E
:1059A6001E03A53149F4E0E0E0931E03319903C0DC
:1059B6000E94230AFBCF07C0CACF9FCF6ECF28CF46
:1059C600E4CEA5CE64CE15D5A92DF1D1EA93A92DA5
:1059D600F4D1EDD5EA93AE2DF0D1EED5EA93AD2D07
:1059E600ECD1EFD5199108950A921A92FA926A9318
:1059F6007A938A939A93AA93BA93EA93FA93EFB710
:105A0600EA930E940734E0E0E0938100E09184008D
:105A1600F0E0DF01E0918500FE2FE0E0EA0FFB1FDA
:105A26008F01E3E6E0938500E0ECE0938400E2E09A
:105A3600E0938100005C1346E0911603F0E0309796
:105A460021F4E1E0E093160350C0E130A0E0FA074C
:105A5600B9F4013AEFE01E0768F0E2E0E0931603BE
:105A6600E0E0E0931A03E0931B03E0931C03E0934A
:105A76001D0305C0E0911603E150E093160335C0FF
:105A8600E230A0E0FA0761F4B4D50E94A433BAD597
:105A9600093BEBE01E0718F0ACD5E160B3D525C095
:105AA600E330A0E0FA0709F5E0E0E0931603E091A1
:105AB6001A03E0931703E0911903E030B1F4E0E034
:105AC600E0931E0334E1383180F43A930E94EB09E7
:105AD600AE2FE0911703EA1731F430931E03E1E08D
