:0E00000036C0FECFFDCFFCCFA9C0FACFF9CF9E
:10000E00F8CFF7CFA3C0F5CF57C0F3CF70C0F1CF65
:10001E00F0CFEFCFEECFEDCF1027E80364000A004C
:10002E00010000100001100001000000000000009F
:10003E000000000061740D0A00617465310D0A0044
:10004E00617464303937323135343930313B0D0A11
:10005E000000010002003800080003003A00000012
:10006E00F894EE27ECBBF1E0FBBFEBBFE5BF8DE0F4
:10007E00A2E0BB27ED938A95E9F780E094E0A0E635
:10008E00ED930197E9F7E0E6F0E085919591009701
:10009E0061F0A591B59105901590BF01F001059005
:1000AE000D920197E1F7FB01F0CFEFE5EDBFE4E034
:1000BE00EEBFC0E6D1E04CC0E2D138D21BB10CB1DC
:1000CE00E12FEC7189F4E32D3394F0E0E05AFE4F0A
:1000DE000083E8E0E31509F433245394E8E0E515D2
:1000EE0019F45524689420F8099119910FC0C7D1BD
:1000FE00AA2061F0AA94E72D7394F0E0E859FE4F20
:10010E00E081ECB9E8E0E71509F47724E991EFBF57
:10011E00F991E9911895AA93E8E0EA15E9F3F894B4
:10012E00AA2011F45D990DC0E82D8394F0E0E859F2
:10013E00FE4FA881A083E8E0E81509F48824A39473
:10014E0002C0E881ECB97894219608951895189517
:10015E00E0E0E7BBE8BBE1E2E4BBE0E0E5BBE1BB2E
:10016E00E2BBE2E0E3BFE0E0E2BFEFBDEEBDEDBD1E
:10017E00ECBDE7BDE6BDEBBDEABDE9BDE8BDE2BD48
:10018E00E2E0E5BDE0E0E4BDE3BDE1E4E9BFE0E0CF
:10019E00E5BFEBB9E8EDEAB9E6E8E0BDE0E0E0BDC9
:1001AE00E3E3E9B9E0E8E8B9E0E0E0BFE6B9EDB9CC
:1001BE00E6BF7894E2E4F0E067D1E7E4F0E064D1E2
:1001CE00EEE4F0E061D1FFCFFFCF66D1AA81A3DFCD
:1001DE00A881B981ED91FD913196FE93EE93239610
:1001EE0008955AD126979ED110E0AC85BD85E0E0EA
:1001FE00F0E0ED93FC93EA89FB893196EA8BFB8B59
:10020E003197E4912E2FE03009F4FCC0E12FE0305D
:10021E0031F4253211F411E001C041D1F2C0E130C8
:10022E00A1F4253211F43BD1EBC012E040E000E026
:10023E002D3211F401E0E5C02B3211F44BE2E1C096
:10024E00203211F440E2DDC002C0E23039F450E059
:10025E0013E0203311F40068D4C003C0E33009F07A
:10026E00D0C0203310F02A3308F007C0AAE05A9FFE
:10027E00502DE22FE0535E0FC4C0E22FE33639F467
:10028E0015D117D113D1A481AA9317D1B9C0E337D1
:10029E0029F419D11AD1DCD01E2F07C0E03749F44A
:1002AE0012D113D1E0D01E2F086002600F7730E01C
:1002BE002DC0E43611F0E93611F4046002C0E537C2
:1002CE0029F4E6E2F0E00AD115E00BC0E83511F4AE
:1002DE00086003C0E83709F093C0E0E3F0E0FED019
:1002EE0014E002FF11C0EFD0FCD0AB85AA2332F48C
:1002FE00EA85FB850BD1EA87FB874DE2403011F092
:10030E001F5F01C00B7F02C0DED0EBD000FD10C01E
:10031E00151770F407FF08C002FF04C00B7F242FCF
:10032E00115001C020E301C020E2B9D05150F0CFEE
:10033E00312F01FF15C0303091F003FF05C0EE8163
:10034E00FF812591CBD005C0AE81BF812D91AE83AB
:10035E00BF83A5D0503009F051503150ECCF47C07B
:10036E0020E3EE81FF81DAD0E887F987EE81FF8105
:10037E003296B4D0E885F985AA85BB85AE17BF073E
:10038E0050F02F5FA885B985EA85FB85EA1BFB0B2C
:10039E00EA87FB87EFCF2A3328F003FF02C0295FDD
:1003AE0001C0295D04FD19C0213320F4A885B9854B
:1003BE00119709F409C0531710F000FF01C011C0C6
:1003CE0020E207FF0AC020E3006102FF06C00B7F98
:1003DE004A9373D0503009F0515061D0503009F02B
:1003EE0051503150A885B985129708F0B9CF00FF4A
:1003FE0007C0503029F05150E0E2EA935ED0F9CFB9
:10040E0010E0F9CEAC85BD8585D093D06496089565
:10041E00FF92F82E26978AD0DE01149673D08D01A6
:10042E00E0E0EC83ED83EE83EF83DE0118966AD075
:10043E0071D0FA93EA931A930A93ECEEF0E0FA93E2
:10044E00EA93DE011896CDDE78D02896FF900895B7
:10045E0023D0A991B991EE27FF276D91662311F054
:10046E003196FBCF089518D0AA27BB27E991F991B1
:10047E000590002011F01196FBCFFD010895EA932F
:10048E00FA93EFB7EA930895FA93EA9380E0C0DF08
:10049E002296A8EBBBE02CC0BA93AA9308952A9398
:1004AE00AD85BE85EF85F88909950895E889F989A6
:1004BE0008953497E88BF98B0895AD85BE85EF8549
:1004CE00F88909950895F2DFF4CFA889B9891496B1
:1004DE0021D0EE83FF83AE81BF810895EE83FF832B
:1004EE000895A889B989149615D0EA87FB870895CF
:1004FE00109639F080ED97E00197F1F7A8951197D6
:10050E00C9F708950024AF0DB01D0895F195E1953A
:10051E00F0400895ED91FC91119708950590F49196
:10052E00E02D08955A934A933A932A931A930A9375
:10053E0008955D814C813B812A811981088108953E
:00000001FF
